:020000022000DC
:106000005065002039A70200794004000DA7020066
:106010000DA702000DA702000DA70200000000005E
:1060200000000000000000000000000071A4020059
:106030000DA702000000000029A402000DA7020025
:10604000EDA4020085950300EDA40200EDA402007A
:10605000EDA40200EDA40200EDA40200EDA40200F4
:10606000EDA40200EDA40200EDA40200EDA40200E4
:10607000EDA40200EDA40200EDA40200EDA40200D4
:10608000EDA40200EDA40200EDA40200EDA40200C4
:10609000EDA40200EDA40200EDA40200EDA40200B4
:1060A000EDA40200EDA40200EDA40200EDA40200A4
:1060B000EDA40200EDA40200EDA40200EDA4020094
:1060C000EDA40200EDA40200EDA40200EDA4020084
:1060D000EDA40200EDA40200EDA40200EDA4020074
:1060E000EDA40200EDA40200EDA40200EDA4020064
:1060F000EDA40200EDA40200EDA40200EDA4020054
:1061000053B94AB9002908BF00281CBF4FF0FF311E
:106110004FF0FF3000F00CB8ADF1080C6DE904CE83
:1061200000F008F8DDF804E0DDE9022304B0704770
:10613000704700BF2DE9F04786468C460846089E0A
:10614000154674461946002B40F0C2808542B2FACB
:1061500082F245D94AB1C2F1200300FA02FC2EFABC
:1061600003F3954043EA0C0C94404FEA154EA8B255
:10617000BCFBFEF8230C0EFB18CC08FB00F943EA2D
:106180000C43994528D9EB1808F1FF3704D29945FB
:1061900002D9A8F102072B44A3EB0903A4B2B3FB75
:1061A000FEFC0EFB1C330CFB00F044EA0344A0424F
:1061B00014D92C190CF1FF3304D2A04202D9ACF14E
:1061C00002032C44241A43EA07401EB1D4400023A2
:1061D00034607360BDE8F0874746DDE76346F1E76A
:1061E00092BB431B01214FEA154EAFB2B3FBFEFC3D
:1061F000200C0EFB1C330CFB07F840EA03439845C8
:1062000062D9EB180CF1FF3004D2984502D9ACF1F9
:1062100002002B44A3EB0803A4B2B3FBFEFC0EFB6D
:106220001C330CFB07F744EA0344A7424ED92C1950
:106230000CF1FF3304D2A74202D9ACF102032C4483
:10624000E41B43EA0040C0E7C2F1200320FA03F157
:10625000954090402EFA03F303434FEA154EAFB238
:10626000B1FBFEFC0EFB1C10190C0CFB07F841EAFD
:106270000041884504FA02F422D969180CF1FF3074
:1062800004D2884502D9ACF102002944A1EB0801EF
:106290009BB2B1FBFEFC0EFB1C110CFB07F743EAA3
:1062A00001439F420ED9EB180CF1FF3104D29F42FB
:1062B00002D9ACF102012B44DB1B41EA004192E719
:1062C0006046E3E76146F7E76046A3E76346B7E762
:1062D000834206D916B9002108467BE7C6E900E0EB
:1062E000F9E7B3FA83F78FB9834201D3724508D82F
:1062F000BEEB020460EB030301209C461EB90021A3
:1063000068E73846FAE7C6E9004CF8E7C7F1200C21
:10631000BB4022FA0CF41C432EFA0CF120FA0CF3C9
:10632000B84001434FEA14490EFA07F5B3FBF9F8F8
:106330001FFA84FE09FB18300B0C08FB0EFA43EA27
:1063400000439A4502FA07F240D9E31808F1FF30FA
:1063500004D29A4502D9A8F102002344A3EB0A0310
:1063600089B2B3FBF9F809FB183308FB0EFE41EACA
:1063700003418E452CD9611808F1FF3304D28E45B4
:1063800002D9A8F10203214443EA0040A0FB02988D
:10639000A1EB0E014145CE46434602D306D14D4501
:1063A00004D2B9EB020E68EB04030138002EA6D02C
:1063B000B5EB0E0261EB030101FA0CFC22FA07F3C4
:1063C0004CEA0303F940C6E9003198E74046C5E7C7
:1063D0004346D9E70000000073B5C24DD5F85431EB
:1063E000996811F0010121D101AA40F6034004F09F
:1063F00077FF0446002864D1019883681B789BB915
:10640000BFF35B8FD5F8CC30BFF35B8F05F1CC02C7
:1064100003F00903BFF35B8F52E8001F42E800342A
:10642000002CF9D1BFF35B8F15F072FF01AA002198
:1064300041F2030004F054FF0446002841D1019EBC
:10644000A948B168082201311DF066FF304615F0F9
:106450005FFF214601AA41F2010004F041FF04461A
:1064600078BB019883685A7885F868205A88A5F81F
:106470006A201A7985F86920B3F80720A5F86C20FE
:10648000B3F80530A5F86E3015F042FF214601AA99
:1064900041F2020004F024FF044690B9019E9348A3
:1064A000B168402201311DF037FF90481DF0BBFF5D
:1064B000304615F02DFF95F874305A0604D46FF06D
:1064C0001204204602B070BD214601AA42F2030028
:1064D00004F006FF04460028F3D1019E8448B16809
:1064E000082201311DF018FF304615F011FF21463A
:1064F00001AA42F2020004F0F3FE04460028E0D1B3
:10650000019CA368B3F80120A5F8FC2091B221B149
:10651000DA787848114621F0F8FD204615F0F8FEAB
:1065200095F8746016F0200618D1022140F66D40EF
:1065300004F07AFE0446002800F0CC8002210830E6
:1065400020F045FE0123037046702146324640F696
:106550006D4004F0C5FE04460028B2D195F8943091
:106560001B0712D501AA002142F21C0004F0B8FE5C
:1065700004460028A5D101988368D3F80120D3F8F8
:106580000530C5E9362315F0C3FE95F8D0309E06D8
:1065900024D50DF1020168461EF0CCF9044600280E
:1065A0008FD1042142F2240004F03EFE064600286A
:1065B00000F090800421083020F009FEBDF8003082
:1065C0000380BDF8023043802246314642F2240067
:1065D00004F086FE044600287FF473AF95F8D030AF
:1065E0005C0610D501AA002142F22A0004F078FED0
:1065F000044600287FF465AF019883685B7885F8CE
:10660000183115F085FE082142F2010004F00CFE5D
:10661000044600285ED00821084420F0D8FD95F8F3
:10662000D01011F0400F024640F2022308BF0323AE
:1066300088074CBF43F02C0043F00C008B0695F804
:10664000D13048BF40F0400013F0090F95F89A3060
:1066500018BF40F4006003F00603CE0748BF40F0C7
:106660001000062B08BF40F4C07000211EF042F855
:106670002146002242F2010004F032FE04460028C6
:106680007FF41FAF95F87430B5F8FC10980624D449
:10669000C9B901AA41F2050004F022FE044600280F
:1066A0007FF40FAFB5F8FC30019C4BB9A368B3F889
:1066B0000120A5F8FC209A880E48114621F025FDFE
:1066C000204615F025FE082140F6014004F0ACFDFF
:1066D000044688B96FF06804F3E60029F3D16FF03F
:1066E0000404EEE600000020700000207800002086
:1066F000D0000020000100200821084420F067FDA0
:1067000095F8D030D907024657D431484FF00051A0
:106710001DF0F0FF2146002240F6014004F0E0FDAC
:10672000044600287FF4CDAE014601AA4FF6014091
:1067300004F0D6FD044648BB019815F0E9FD21465A
:1067400001AA4FF6024004F0CBFD0446F0B9019EC9
:106750002048B168022201311DF0DEFD304615F0FF
:10676000D7FD95F8B9305B0710D501AA21464FF641
:10677000034004F0B5FD48B9019C1748A168012207
:1067800011441DF0C9FD204615F0C2FD1EF0F0FABF
:10679000044600287FF495AE06F04AFC0446002823
:1067A0007FF48FAEEB79002B3FF48BAE08210B48C2
:1067B0001DF0F8FE05F06EF883E603A1D1E90001B3
:1067C000A6E700BFAFF300809088000200800020A1
:1067D00010880002B9000020B8000020CC00002082
:1067E0002DE9F843D0E90B35D0F828805C19303416
:1067F000A0450F46164619D81D4DA3FB05011AA347
:10680000D3E90023FFF77CFC0346A4EB0800A0FBC0
:10681000050123F07F4414A3D3E90023FFF770FCA4
:1068200020F07F403C603060BDE8F883DFF84090A6
:106830000DA3D3E90023A8FB0901FFF761FC04467F
:1068400005F1300008A3D3E90023A0FB0901FFF7FD
:1068500057FC24F07F4420F07F403C603060BDE86E
:10686000F88300BFAFF300808D49FD1A07000000D8
:1068700000CA9A3B00000000002800F089812DE941
:10688000F04FCB4D95F86A30D8078DB000F1CF812D
:1068900095F8292095F8353005EB820205EB830346
:1068A000D76AD3F838800FB33C4614F8020BC0F314
:1068B00080100AF075FE0622014620461DF02CFDD0
:1068C0003B78590606D50621204609F0EDFB002845
:1068D00000F0AF81444614F8020BC0F380100AF0B8
:1068E0005FFE0622014620461DF016FD3B7813F0A0
:1068F0000E0F40F0E6802B6A1BB10C200DB0BDE8F6
:10690000F08F0CF021FD8146002800F09F810CF0F3
:1069100027FD8246002800F096810EF045FD0446D2
:10692000002800F09581406F4FF6FF73238504F136
:106930001C0B002800F0838104F1680204F164015B
:1069400009F0BEFBB4F860309A4A23F4EF6323F0F9
:10695000070343F4887343F00103A4F8603094F80C
:10696000393003F03F0363F07F0384F8393094F843
:106970007A3023F0070384F87A3094F83C3023F01F
:10698000070384F83C3094F8D83023F0070384F8E8
:10699000D83094F80E31002666F3041384F80E31D3
:1069A0004FF01B13C4E916320623A4F8C030C4E923
:1069B00012666667A4F878606686C4F82E6084F86C
:1069C0003B602665A4F8C460A4F8C860A4F8D06051
:1069D000A4F8CC6084F8E660A4F8E460C4F8086128
:1069E000A4F80C61A4F820610BF0F6FF94F83A319A
:1069F000A4F8386123F0030384F83A3194F87A302C
:106A0000A4F8406123F0180384F87A3094F86631D2
:106A100084F8436123F0070384F8663194F88631E3
:106A2000C4F8449166F3861384F8863194F8B6313D
:106A3000A4F8646166F3C303002284F8B63100232E
:106A4000C4E94A01C4E94C2384F8D960A4F88461FC
:106A5000A4F89661C4F8E060A4F8B461A4F8C06139
:106A60000EF0DCFFA4F8D2000EF0DEFFD4F8C42153
:106A7000514BA4F8D4001340C4F8C4310EF0DAFF2F
:106A800094F8C83160F3020384F8C8310EF0D8FFDF
:106A900094F8C831C5F820B060F3C503C5E9189A69
:106AA000C4E97666C4E97466C4E90566C4F8CC61D5
:106AB0002670E46184F8C83113F0CAFA002840F067
:106AC000BA8095F824300121C3F342030DF12B0065
:106AD0008DF82B3009F07EFC024600285AD098F839
:106AE000011038460DF052FB3449B5F868600024B7
:106AF0003123AB60C5E905442BA3D3E900232C70F7
:106B00006C60EC60A0FB0101FFF7FAFA28610AF063
:106B10001DFD80463EB93C7804F00F04A4F1010449
:106B2000B4FA84F4640995F824002B6964F3000036
:106B300010F0010485F8240048D00020204A214F9D
:106B4000049302240BAE019305920321CDE90200C8
:106B50000896069543460090079722460B940AF044
:106B600027FC31460CF0A8FCA0B9174905914AF260
:106B7000D8330093CDE90300CDE9010007970896CB
:106B800006954346012203210B940AF011FC43E0D1
:106B90000DF04EBA2B6A002B3FF4AFAE0DF006FAA3
:106BA000ABE600BFAFF300808D49FD1A070000007F
:106BB0004C270020480148010000FFF600CA9A3B1C
:106BC000FD410300792A0300513D0300264A27486E
:106BD000049303F247130695029491211360A6FBD8
:106BE000000301FB0631224B0793224B05934FF61E
:106BF000FF730992022703930BAE19A3D3E9002375
:106C00000B970896FFF77CFA4346CDE900403A46D9
:106C1000204603210AF076FB31460CF04DFC00289B
:106C2000B8D195F86A3043F0010385F86A30002046
:106C300064E6122062E60DF0B9F903205EE604F185
:106C40006C00606778E648460CF084FB072055E648
:106C500050460CF08BFB48460CF07CFBF6E700BF7F
:106C60008D49FD1A0700000040270020002AE78414
:106C7000792A0300FD41030070B590F824308AB0F2
:106C8000C3F342030D46044601210DF123001646CD
:106C90008DF8233009F09EFB7178024628460DF0EE
:106CA00075FA1D491AA3D3E90023A0FB0101FFF7E0
:106CB00027FA23699842054622D21B1A0022019224
:106CC000164A02930221164B0991A21ACA40A3FB4D
:106CD0000232D20800230A4409AE12490591CDE9D7
:106CE00003330321D2B20696009318460AF0D4FB70
:106CF00031460CF0E1FB38B9256100200AB070BDC7
:106D0000FBD9C21A0023DAE70C200AB070BD00BF1D
:106D10008D49FD1A0700000000CA9A3B4C2700204D
:106D2000F712DA4B792A03002DE9F04FC38D468E16
:106D3000B0F8E8701E4490F80E31B6B2314413F04A
:106D400007038BB004461FFA81F940F08D81A9EB4F
:106D500007011FFA81F9090400F1E781904690F9D3
:106D60003920002AC0F2498194F8E43084F8E530F3
:106D700094F8842194F8853194F80C1184F80D115D
:106D8000934206D094F8863103F00F03062B00F0EF
:106D90003C82A74BD4F808511A68944204BF0022E1
:106DA0001A60002D00F031812B68002B00F02D813E
:106DB0005B68628DC4F80831B4F81031934205D194
:106DC000B4F81211A28D914200F00382238DEB8062
:106DD00019232B7100232B77B4F81031EB83B4F80F
:106DE00012312B84B4F8143128686B8429460CF0D6
:106DF000C3FA0CF0CBFAA368002BC0F2F280B4F80F
:106E00002AC0B4F810511CFB09FC1FFA8CFCBCFB17
:106E1000F5F315FB03F080B284451FFA83FA80F086
:106E2000CE80A0EB0C0040F2E242824902FB00F06F
:106E3000A0FB01017CA3D3E90023FFF761F920F057
:106E40007F408044E38D1F44BF1B94F93930574481
:106E5000E785002B40F2E24707FB05F6C0F26881A8
:106E6000754A764976484FF458631BF0ADFB4040B5
:106E700080F311884FF0030002DF0027B346714A08
:106E8000D4F81011B4F814316F48C4F82A10324401
:106E9000B2FBF6F2A4F8C62042F21072090C02FB13
:106EA00003633044013BB0FBF6F0B3FBF6F3A4F808
:106EB000C23083B2881D8342A4F8CE3004DDC1F510
:106EC0007F41FA310B449BB2A4F8CA3094F80E31DA
:106ED0001B0744BF0023A4F8C4300221012014F092
:106EE0009DFF002202218246012009F039F957490D
:106EF0004FF4F472204609F0C3F800F103095FFA79
:106F000089F9534B00944A46012100200AF0DCFA2B
:106F100030F002030CD0484A4E49494840F6AF537E
:106F20001BF052FB404080F311884FF0030002DF5A
:106F3000404EABFB066B3CA3D3E9002330465946D9
:106F4000FFF7DEF80894069423690493424B20F07F
:106F50007F45A5FB0331F01A404B07934FF0070222
:106F60003F4B059302FB05114FF6FE736BEB0101DE
:106F700003934FF47A720023FFF7C2F84346CDE93A
:106F8000015000974A46012100200AF011FA30F022
:106F900002030CD0284A2F49294840F6C9531BF058
:106FA00013FB404080F311884FF0030002DFBAF179
:106FB000000F40F0088100200BB0BDE8F08F05FB0A
:106FC00013C11C4840F2E24389B203FB01F1A1FB6B
:106FD000000115A3D3E90023FFF792F8A8EB0008FE
:106FE00030E7E168626823F0004391422CBF884497
:106FF0009044A360A8EB030801E790F8D920002A89
:107000003FF4B2AE80F8D930B2E60B4A15490C48CD
:1070100040F6FA431BF0D8FA404080F311884FF055
:10702000030002DF2B68C3E68D49FD1A070000004C
:107030006829002000CA9A3B609C04001098040054
:10704000B0970400FF5962027FC3C90118160020DF
:10705000D94B0300409D04008D49FD1A814B03006C
:10706000559203002C9D040001200CF095F9064672
:10707000002800F0DC807C4808F0CAFF05460028A4
:1070800000F0D580794B1A68002A00F0C7800CF018
:10709000A5F93368D4F808215A60C4F808612B793F
:1070A000002143F003030C226A712B71E97194F8FB
:1070B0001C312B72D4F818316D4AA2FB03239B0AB2
:1070C000A5F80930B4F81031A5F80B30B4F8123136
:1070D000A5F80D30B4F81431A5F80F30A38D94F84D
:1070E0000E2106334B4461F302029BB284F80E2159
:1070F000A4F8E830A5F8113094F80E31D4F8D02176
:10710000D4F8CC1143F0100384F80E31002A00F0BB
:107110008780D4F8D4311B682B60D4F8D4311D603B
:10712000C4F8D4512B68002B7ED06FF0760043E773
:10713000226CA36C02FB1933A36412F0D9FF05463D
:1071400094F8D800C0F3C20012F0D6FF054406FB45
:1071500005F5484B94F81C2105F5742505F23F25EB
:10716000A3FB0535AD0C07FB02F2A36C226505FB02
:107170000AF072080344963A934228BF13462564E6
:10718000A6EB050B3C4DC4E911230023C4F8E03005
:10719000A0FB050132A3D3E90023FEF7B1FF344B76
:1071A000A8EB0008D4F81801A3FB0030800A07FB05
:1071B00000F02BA3D3E90023A0FB0501FEF7A0FFFD
:1071C00020F07F475BE601220221104608F0C8FF4D
:1071D000F1E640F2E241B4F8142101FB03F342F27C
:1071E000107101FB0232013AB2FBF3F3B4F8C22092
:1071F0009BB29A427FF4EAAD012328682B7129469D
:107200000CF0BAF80CF0C2F8F5E5B4F896318BB989
:1072100084F885210023A4F8C830BAE51C6036E75D
:107220002960C4E973557BE7C4F8DC517DE76FF052
:107230006800C1E6A4F88E31B4F8863103F0C003CB
:1072400043F01003A4F88631D4F89031C4F88831A3
:10725000B4F89431A4F88C310023A4F89631D9E71E
:107260008D49FD1A07000000202800206829002011
:107270005917B7D183DE1B4300CA9A3B00000000B8
:107280002DE9F04F0B68D3F80090037F93B0904640
:10729000C3F380131646054606220F4600F11E0171
:1072A00010A80A9358F8084B1DF036F810A90622CA
:1072B0000EA81DF031F82946404651F82EBB032296
:1072C00006F1040A1DF028F806F11808042205F159
:1072D0002A0150461DF020F8052205F13A014046EA
:1072E0001DF01AF84046052109F074F8737F00F08C
:1072F0003F0060F30503737795F83F30C3F3040252
:10730000B277AA8EF281012808D903F01F031B333C
:1073100003F01F030B2B01D892B2CAB90022C9F89F
:10732000142096F8203062F3000386F82030EC68D1
:107330000126584629462E710CF01EF82068267149
:1073400021460CF019F80CF021F813B0BDE8F08FCD
:107350003B6800225A60EB8E338295F83F3094F8F8
:10736000D820B6F80E805B0963F3C5026B8E84F8F3
:10737000D82040F2E24202FB08F80C9312F0B8FE6B
:107380000B9094F8D800C0F3C20012F0B5FE0B9B2E
:10739000184408FB00F0AE4B00F5742000F23F20CB
:1073A000A3FB00304FEA5803800C963B7062B36237
:1073B00095F8313040F2E24202FB03F3B3632B8FC6
:1073C000A44AADF8363019464244A34BB2FBF8F25A
:1073D000A4F8C6208AB242F2107101FB0282434433
:1073E000013AB3FBF8F3B2FBF8F2A4F8C2209AB268
:1073F000A4F8CE20318A881D824204DDC1F57F4188
:10740000FA310A4492B2A4F8CA205146042204F187
:10741000DC001CF081FF2B4613F81C2FC2F3401236
:107420000B92DA0700F1EF809DF82830AB774FF42C
:1074300080730EA9AB83062205F11F001CF06CFFC0
:10744000F389EB84338A2B85BDF836306B8594F84D
:10745000D830C3F3C20385F82C3020460DF0B0FFBE
:10746000B081E880294658467D680BF085FFB389D6
:10747000EB801C232B710B9BD5F800B0002B40F048
:10748000B8800B9B2B77294658460BF075FF0BF005
:107490007DFF96F84500B6F840A0B6F842500121AD
:1074A00000F0070012F038FC554405F56175291805
:1074B00083466A484FF0000A3123A360A1FB000114
:1074C00061A3D3E90023C4F804A0C4F80CA0FEF71C
:1074D00017FE20F07F4020610C99FB68756A40F22E
:1074E000E24202FB013303F2B243A3EB0B03524629
:1074F000022101200A9308F033FE48460DF02EF8D1
:10750000821C574BCDF80090D2B25046012109F0B1
:10751000DBFF0128A8EB050500F0828099F82430F4
:10752000DB075ED420460DF04BFFDFF83091A5FB62
:10753000098545A3D3E90023824629464046FEF744
:10754000DFFDBB68474A07920AF10307A3F1490A26
:10755000454B069420F07F46A6FB0331B8EB0300B1
:10756000424B05934FF4EB73089323694FF0000BE4
:10757000CDE903B34FF0070303FB061165EB0101EF
:107580004FF47A720023FEF7BBFD0A9BCDE9016040
:10759000A3FB09012CA3D3E90023FEF7B1FDFFB241
:1075A00020F07F40009053463A460121584609F0AA
:1075B000FFFE30F002030CD02D4A2E492E4840F237
:1075C000D7131BF001F8404080F311884FF00300FF
:1075D00002DF01220221104608F0C2FD13B0BDE80F
:1075E000F08F0023012200931846114609F06CFF2A
:1075F00098E7737F43F040037377504611F04EFFD6
:107600000123F0833EE71A4A1C491B48FF231AF066
:10761000DBFF404080F311884FF0030002DF03E7F7
:107620000BF08AFF81453FF479AF114A14491248A3
:1076300040F2A1231AF0C8FF404080F311884FF0B8
:10764000030002DF6AE700BF8D49FD1A0700000052
:1076500083DE1B43FF5962027FC3C90100CA9A3B04
:1076600019920300E99103008D49FD1A5592030018
:10767000849E0400409D0400B09704009C98040080
:10768000E09E0400000000002DE9F04F8FB0DFF80D
:10769000D8800B900DF137010DF136000BF0E6FEAE
:1076A000324F9DF836A09DF837B009F04FFFD8F85B
:1076B00000400A90A4FB075429A3D3E90023002625
:1076C00021462846FEF71CFD0B9B0693CDE9076675
:1076D000274B05938146D8F8040021A3D3E9002362
:1076E000A0FB0701FEF70CFD224B29F07F47A7FB0B
:1076F000033120F07F400722CDE9036002FB071130
:10770000E81A64EB01014FF47A720023FEF7F8FCEB
:107710000A9B0096CDE901705A460321504609F0B4
:1077200047FE30F0020416D1134A1448002319F022
:1077300041FA68B19DF837209DF836000094234641
:10774000032109F0C1FE6FF073000FB0BDE8F08FA8
:10775000D8F80C00F9E76FF08B00F6E7AFF3008084
:107760008D49FD1A070000006036002000CA9A3BD0
:1077700075DE03008D49FD1A447B0B00483600205E
:1077800038B50F4D044609F0E1FEA96809F0E0FEA6
:107790006968B0FBF4F404440A4807A3D3E9002362
:1077A000A1FB0001FEF7ACFC20F07F40844294BFB7
:1077B0000020012038BD00BF8D49FD1A07000000E0
:1077C0006036002000CA9A3B014819F06BBB00BF2D
:1077D0006802002007B520F00CFF4FF47A72A0FB7E
:1077E000020302FB0131C00B074A40EA414010602E
:1077F00000234FF400420548CDE900231AF016F9A2
:10780000002003B05DF804FB681A0020880B0020FC
:1078100008B5044B187800F097F9BDE808401AF055
:1078200008BA00BF2E3A0020044B1A78824202D0D8
:107830001870FFF7EDBF0020704700BF2E3A002000
:1078400008B520F0D6FE4FF47A72A0FB020302FBCB
:107850000131C00B044A40EA41401060BDE80840D5
:107860000020FFF7E1BF00BF681A002008B520F034
:10787000C0FE4FF47A72A0FB020302FB0131084AFA
:10788000C30B126843EA41439B1A47F230529342BA
:1078900004DDBDE808400120FFF7C6BF08BD00BFFA
:1078A000681A002030B5194C8DB00022002303A9BE
:1078B000204619F015F808B10DB030BDDDE904150A
:1078C000039800F057F80028EFDBFF238DF81830FD
:1078D000B5FA85F35B0907908DF8203020F089FE1A
:1078E0004FF47A72A0FB020302FB0131C00B40EAA5
:1078F0004140C90B8DE8030006ABCDE90A010FCB6F
:1079000000F02EF91AF095F9CFE700BF0C0D00201A
:107910001FB583F00103CDE9011203930022002378
:1079200001A9044818F086FF034819F0BBFA05B016
:107930005DF804FB0C0D00206C1A002010B5044605
:1079400078B10949094820F062FCA36808491B681E
:1079500020469847A3689B680BB1204698470020B3
:1079600010BD6FF01500FBE7A57802006C1A00202F
:107970001179020001EB001108314C2905D8044BA4
:1079800053F8210008B1013870476FF015007047B7
:10799000EC8E04002DE9F041134B144EA3EB0608C6
:1079A00007460D4606EBC106C8F3C708A84506DC26
:1079B0000024384620F0C8FF2046BDE8F081326838
:1079C0003B689A420BD13D71736838461B689847F3
:1079D00001280446ECD0022804D00028E9D1013562
:1079E0000836E3E70024E7E7B4AB04009CAB0400EF
:1079F00000B58BB0064B074A2821684602F06AFFA3
:107A000005490122684601F0EBFF0BB05DF804FB6D
:107A1000B8A40400C2A404002F3A00202DE9F041CC
:107A2000466807693179F38804463068D0F810E079
:107A3000D0F80880DEF80050DA0754BF43F4B013E2
:107A400083F4D0134FF0010C23F480120CFA01FCE4
:107A5000DB074CBF45EA0C0525EA0C05CEF80050C3
:107A6000D8F80030984760BB02F00EF9164802F0D3
:107A700047F8054610BB1549154820F00CFC154881
:107A800001F0E8FF7B785BB901233B700022002303
:107A90000F4819F06FFAA3681B680BB1204698478E
:107AA000318959B140F2E7304FF47A72002300EB8C
:107AB000C1300021FEF724FB19F062FD2846BDE825
:107AC000F0816FF00405F9E778020020F1790200F7
:107AD000080F0020D5A4040008B54FF4F0120023CD
:107AE000024819F07BFA00EAE07008BD080F002098
:107AF000F7B50C461646114901AA1F461BF07FF840
:107B0000B0B1019BA3B9012C15D10D4D22462946D8
:107B10003846B047002806DB2B780A486C7023B142
:107B20001AF09DF8002003B0F0BD1AF0AAF8F9E7AA
:107B30006FF00100F7E76FF01500F4E7B8A4040058
:107B40002F3A0020088B040010B504460C2020F0CA
:107B500002FF024A0260047210BD00BF38900400A8
:107B600084B070B504AC84E80F00202020F0F3FE50
:107B70000446084B44F8083B04AD06460FCD0FC43D
:107B800095E8030084E803003046BDE8704004B087
:107B9000704700BF3C9004000268034B9A420CBF40
:107BA00008300020704700BF3C90040010B5044628
:107BB0000C2020F0D0FE024A0260047210BD00BF0B
:107BC0004490040082B038B504A981E80C00054651
:107BD000114818F013FC0446A0B16B68012B0CD0BF
:107BE000022B05D0A3B9BDE8384002B01AF06FB837
:107BF0001AF074F800282046F5DCBDE8384002B0E1
:107C00001AF05EB86FF00400BDE8384002B070476B
:107C10006FF08500F8E700BFB8A4040082B010B58B
:107C200002A981E80C0004460B4818F0E7FB78B184
:107C30006368022B04D00020BDE8104002B07047FA
:107C40001AF04CF80028CCBF002001206060F2E759
:107C50006FF00400F0E700BFB8A4040010B50446BC
:107C60000C2020F078FE024A0260047210BD00BFB2
:107C70008090040008B500F00BFABDE80840014907
:107C800020F0F2BA9002002007B50A4820F044F82C
:107C900068B14FF4F0120023CDE90023064800221A
:107CA000002319F0C3FE002003B05DF804FB6FF061
:107CB0001200F9E7388B0400F80B002037B50F4CA1
:107CC000A5682C21EB6820469847A0B92C212B6988
:107CD0006A462046984770B9094C00982378834239
:107CE00009D0C0B2207000F087FD20B92078FFF7DE
:107CF000B5FF19F09EFF03B030BD00BF388B040004
:107D0000313A002010B504460C2020F024FE024A2F
:107D10000260047210BD00BF849004001FB51024DF
:107D20000294044C0194BDF8184000941EF092FB9C
:107D300004B010BD453A002007B5064B0093064934
:107D4000064805234FF4247219F0B2F8002003B05E
:107D50005DF804FB8C900400283B0020380F0020C5
:107D600070B50F4D0F4E8AB0002200236946284699
:107D700018F0B6FD044608B10AB070BD21461822BD
:107D800004A81CF0D4FA10230DEB0301204605963D
:107D9000CDF818D0ADF81C3006F0ECFEE4E700BFDB
:107DA000DC0C0020A89004001FB50E490E4840F6D8
:107DB000CD42002318F03EFD044670B110F10B0FC8
:107DC00008D1002200236946074818F089FDFFF713
:107DD000EBFF0446204604B010BD0449044820F0DF
:107DE00043FAF7E7453A0020DC0C0020A00200200F
:107DF000380F0020C208054900F007000123834026
:107E0000885C03438B54FFF7CFBF00BF453A002087
:107E100010B4C108054C00F00700635C01228240E9
:107E200023EA0203635410BCFFF7BEBF453A0020AB
:107E300010B5002003F040FD044678B901F024FF9E
:107E4000074801F007FE074801F004FE064804F069
:107E500065FF064B06481C7019F024F8204610BD3B
:107E6000CEA50400D2A50400D8020020553A002077
:107E7000F80200200A4BB1FA81F010B540090C4617
:107E80001870FFF73FFF19F0D4FE3C2C07D1054BCB
:107E9000054801221A70BDE8104019F003B810BD62
:107EA000563A0020553A0020F802002070B50378B9
:107EB0008AB004460E4607AD032B20D8DFE803F056
:107EC00002191B1D114928461CF0E5F90595637838
:107ED0000493A3780393E37802932379019363795E
:107EE0000093A3790A4A1E2130461AF07AF80AB0A4
:107EF00070BD0849E7E70849E5E70849E3E7084AAC
:107F00000A2128461AF06DF8E0E700BFD5A5040065
:107F1000FEA50400DCA50400E3A50400EDA5040013
:107F2000F7A5040010B588B01DF0F2F96946FFF717
:107F3000BDFF0024064B20461C70FFF7E3FE19F03E
:107F400078FE044B04481C7018F0ACFF08B010BD5C
:107F5000563A0020553A0020F8020020F0B51F4D97
:107F60001F4B2868AA881F781E49AB798BB003ACD9
:107F70000390ADF81020002022468DF8123007F053
:107F800021FF0722294620461CF0B6F90646C8B153
:107F900000239F420BBF1946A0211A46F02214BFAE
:107FA00013200320CDE90601CDE90824ADF81430F3
:107FB0008DF8163000931A46194605A804F07AF990
:107FC0000BB0F0BD084D0FCD05AC0FC42B6823607E
:107FD0000649009633460322EFE700BFB0A704002E
:107FE000553A0020F17F0200608E040020910400C9
:107FF00038B507220C46064905461CF07DF930B11C
:10800000294620460722BDE838401CF085B938BD16
:10801000B0A70400024B1870024818F043BF00BF1D
:10802000410B00200803002008B5044801F0F2F9D4
:10803000002818BF6FF0150008BD00BF15800200B2
:10804000084B1B780B2B4FF001000AD8984010F416
:108050001A7F05D110F4016F0CBF0120002070477A
:1080600002207047410B002007B5064B00930649DC
:1080700006480A234FF4407218F01AFF002003B09C
:108080005DF804FB38910400B83D0020D80F0020B3
:1080900000487047D80F00200148FFF74FBC00BFD1
:1080A000988B040010B5094C0A44914200D110BDD0
:1080B00011F8013B584003090001E35CC0B24340A2
:1080C00018091B01205CDBB25840EEE739A604001A
:1080D000014B1B68184700BF1803002007B50B466B
:1080E000002102460091034800F02AF903B05DF830
:1080F00004FB00BFD180020030B587B00025CDE978
:1081000003010446009503A90548059500F018F9F8
:10811000DDE904309842B8BF255407B030BD00BF38
:10812000A31F04002DE9F047058B0446280790465D
:1081300011D4022905F0070540F0CD80204619F042
:1081400078FF78B10138218B042811D8DFE800F0DE
:10815000C3106D85950001290CBF45F0100545F051
:108160002005258388F31188BFF36F8FBDE8F08762
:1081700001F0070AAA4500F0A6800027B9463E464E
:10818000A368002B00F0BD8041F00801218388F333
:108190001188BFF36F8FA168002900F0BB800D68C4
:1081A000002900F0B780D1F80480334652462046BB
:1081B000C047002D76D02B6829461D46F0E701F018
:1081C00007035A1F012A1BD8002221F00701062BA2
:1081D000276889B2C4E9002209D13B4603E0628BDB
:1081E000013262831B68002BF9D141F00201218327
:1081F000204619F01EFF00287BD041F0200177E0D7
:10820000042B0AD121F0070189B22183204619F0FD
:1082100010FF10B141F020012183218B01F0070AEA
:10822000AA4550D00027B946AAE7236921F00701E3
:1082300041F00601062DD3F8009021832DD1B9F12C
:10824000000F40D041F00801218388F31188BFF36B
:108250006F8F3A492046C84729E021F0070123697A
:1082600041F0040189B2042DD3F804902183E6D0B3
:1082700000273E464FF0040A82E721F007012369F8
:1082800041F0050189B2052DD3F808902183D6D09D
:1082900000273E464FF0050A72E700273E464FF0A2
:1082A000060A6DE72B4687E7B9F1000FD1D14FF0F1
:1082B0002003EFF3118883F31288BFF36F8F238BB2
:1082C00023F008032383258BEA062ED525F010031F
:1082D000238305F007056669218B002EBFF66FAF7B
:1082E00000232768C4E9003321F0070141F00101B0
:1082F0002183218B01F0070AAA454FF000097FF482
:108300003FAF002F9BD041F00801218388F31188F3
:10831000BFF36F8F002FC7D03D68394633465246B2
:10832000204619F0B2FE2F46F4E7AB067FF51AAFF0
:1083300025F02003238305F00705FFE6B72004009E
:108340002DE9F04F8DB01D46531E824601910393D7
:108350004FF00009039B5878252803F1010419D137
:108360001E4600204FF0FF38023603460290444676
:1083700031780396392954D81F2914D8002900F0E0
:10838000F08101992520D04701993078D04709F133
:108390000209DFE7002800F0E4810199D04709F1E4
:1083A00001090394D6E7A1F12002192AE9D801A70F
:1083B00057F822F01D8402008383020083830200A9
:1083C0001D840200838302009D84020083830200D7
:1083D000838302008383020083830200E984020016
:1083E0001D84020083830200FD840200A984020030
:1083F00083830200B7840200D7840200D78402007E
:10840000D7840200D7840200D7840200D7840200F8
:10841000D7840200D7840200D784020008460136C0
:10842000A6E7582900F0EE80A1F16302D7B2172F1A
:10843000A7D8172AA5D801A757F822F0AB860200C3
:10844000238502008383020083830200838302006A
:1084500003850200238502008383020083830200D8
:10846000038502008383020083830200838302006A
:10847000DF85020083830200838302007F8602007F
:10848000838302002385020083830200838302002A
:10849000DF85020083830200038502000199252005
:1084A000D04709F1010955E7029A02F0FE02029253
:1084B0004FF00008B3E7002C0DDAB8F1000F0DDA29
:1084C000029A002A00F0458124EAE4740A2202FBA1
:1084D0000414303CA3E7B8F1000FF5DB0A2202FBDD
:1084E0000812A2F130089AE7B8F1000F55F8042BF2
:1084F00080F23181002A80F23081544202220292BD
:108500008DE7682903D1682B06D1482387E76C29BA
:1085100002D16C2B00F02381002B7FF432AF0B468D
:108520007DE77A2B06D1752955F8046B14D14FF0ED
:10853000000B0CE06C2BF6D04C2BF4D1073525F05A
:1085400007037529D3E9006B03F1080506D120283C
:108550003ED1864F013C09E04FEAE67BBBF1000FBC
:10856000F5DA7642824F6BEB4B0B013C0DF12D039C
:10857000059300230493304659460A220023FDF751
:10858000BFFD049B03F1FF3CCDF810C0DDF814C023
:1085900030320CF8012DCDF814C0B4465A46BCF167
:1085A0000A0F72F1000206468B46E4D2C3F1010BBA
:1085B00030330DEB0306B8F1000FA6F104066DDAB7
:1085C000029BD9077CD4A8EB0B03A4EB0B0413E0AC
:1085D0002B280ABF674F684F04F1FF34C6E77029A4
:1085E0000FD155F8042B0023FAB9644E053C6FF007
:1085F00004034FF0050B604F029A92076FD4A04618
:1086000065E078216C2B03D155F8042B002308E09A
:108610004C2BF9D1073525F007031D465B6855F84B
:10862000082B232825D1880621D5554F023C01F07F
:108630006001A1F1390B0DF12D0E002602F00F01A2
:10864000092988BF594430310EF8011D102A4FEA1C
:10865000121141EA03714FEA131073F1000306F19E
:10866000FF3C08D2C6F1010B06F13003A1E7454FEC
:10867000DCE7414FDBE766460A460346DEE755F88E
:10868000046B30461BF011FEB8F1000F834602DB8D
:108690004045A8BFC346384F4FF00008A8EB0B0376
:1086A000002B92DDA4EB0804A6E755F8043B8DF8F7
:1086B0001830013C4FF0FF334FF0010B06AE9AE744
:1086C000A046EBE7029301992020D047029BB8F126
:1086D0000108F7D524EAE472013C9144A41AB84693
:1086E00006E0049302920199D047029A049B9046B7
:1086F000424612F8010B0028F3D11A46013A15D56B
:10870000002BACBFC7EB03077F425B46013B15D58F
:10871000BBF1000FA8BF5F444F442646013E14D56D
:10872000002CA8BF3F1907EB080913E60493029237
:1087300001993020D047049B029ADFE70293019908
:1087400016F8010BD047029BE0E701992020D047A3
:10875000E4E70122D3E6904661E614465FE64C2347
:108760005DE648460DB0BDE8F08F00BF4BA60400A3
:1087700049A604004DA6040083AB040055A60400DE
:108780004FA6040052A6040008B54FF02002EFF3F4
:10879000118382F31288BFF36F8F02F0CDF8034884
:1087A00019F012FC01F090FDFCE700BF5BA604008D
:1087B00015F04CBF1FB507240294044C0194BDF87A
:1087C000184000941DF046FE04B010BD420B00207E
:1087D00010B5084C86B024788DF817400124029417
:1087E0000DF117040194BDF8204000941DF032FEF5
:1087F00006B010BD490B002000B589B064288DF883
:10880000070019D80E4B18221870002102A81BF07F
:108810008EFD0C4B03930DF10703049302A9012372
:108820000020ADF8143006F0A5F910F1800F08BF54
:10883000002009B05DF804FB6FF01500F9E700BFF8
:10884000490B0020E09104002DE9F7430F4606464E
:108850000821C06ADFF8509019F06EFF3C68241AB6
:1088600080463C6004EA0905AC4203D8002003B00E
:10887000BDE8F08308236A462146304619F0CFFE52
:108880000028F4D16946304619F060FF40B1BDF8C8
:108890000230BDF804203C6005EA090513441D447C
:1088A000A4EB0804E0E700BF0000FFFF2DE9F0475C
:1088B000044688B000F1140738461FF02DFBA06A6B
:1088C0008368DB689847E06228B96FF01505284691
:1088D00008B0BDE8F087A06A8368DB689847036842
:1088E000013B1F2BF1D8A06A216805AA1EF062FE89
:1088F0000028EAD1A589002DE7D0069BB5FBF3F24D
:1089000003FB1255002DE0D1E389012BDDD9E36A89
:10891000009593F804904FF0FF334FF0FF32384644
:1089200018F038F8E06A082119F006FFA846064654
:10893000E3891FFA85FA534508D8E389434523D1D3
:10894000384618F0A1F86FF02C05C0E7A1892B0478
:10895000891B13FA81F14A4608232046009119F039
:10896000A3FE78B16946204619F067FE08F10108B8
:10897000009908234A4620461FFA88F819F094FE09
:108980000028DAD00135D3E753450BD100990823ED
:108990004A46891B204619F087FE18B969462046C9
:1089A00019F04BFE69462046FFF74EFF054618B109
:1089B000384618F069F88AE7009B63604FEA13486D
:1089C0004FEA0848C4F80880D4E9011399420FD34C
:1089D000082301AA204619F022FE05460028E7D107
:1089E00001AB13F8012B914533D10135082DF8D196
:1089F00063681B0C1B0469462046009319F01DFE9A
:108A0000A38900994A46204619F04EFE051ECFDB89
:108A1000636876D006EB03084FF6FF79A389CDF89B
:108A200000801FFA88F29B1B9A422ED300236168B4
:108A3000002B43D0090C090400912046694619F027
:108A4000FCFD0099204619F054FE0546002D74D017
:108A5000AEE701A9204619F079FE626810B9921BB1
:108A60006260B1E7BDF80850BDF80610E06AC4F8CE
:108A70000880294419F060FE40449042A060EED185
:108A8000002DECD06FF01C0568E0082303AA4146D6
:108A9000204619F0C4FD0546002889D103A92046C7
:108AA00019F054FE30B1BDF80C304B4502D1BDF881
:108AB00010300BB1B044B1E70123B8E7204619F0FC
:108AC00018FE054600287FF473AF6368264AA18923
:108AD00013400B44A3EB460363601340A36020469E
:108AE00019F016FFB1E75B1A4A46204619F0DCFD83
:108AF000051EFFF65DAF08D0E26AA3681268134452
:108B0000A360D4E901318B42EDD86168A38901EB00
:108B100046029A429AD1DFF85080A26801EA08031F
:108B20009A4293D0204619F0E4FD054600287FF4D0
:108B30003FAF636803EA0803A360A389A288A3EB9D
:108B400046039A4206D0384617F09EFF012323744D
:108B50000025BCE6204619F0C6FE0546384617F04B
:108B600093FF002DF2D0B2E60000FFFF2DE9F04F99
:108B70001D46037C89B0044689469046002B00F0D0
:108B8000BD80C26A0821104619F0D6FD29468246EA
:108B9000104619F0D1FDA389A3EB8A039D42074635
:108BA00000F2AF801DB1B8F1000F00F0AA80636839
:108BB000039304AA03A92046DDF80CB019F0FEFDCA
:108BC0000646002865D1BDF810304B4505D06268D7
:108BD000039B9A42EDD1E5B95BE004A9204619F068
:108BE000B5FD0028F3D0BDF81200BDF8143075B102
:108BF0009D420ED14FEA1B41090401442B464246D7
:108C0000204619F027FD002803DC064641E0002B32
:108C10003FD0002F41D104F1140301934FF0FF32F4
:108C20004FF0FF3304F1140017F0B4FEDFF8D8B0B2
:108C3000E3899E425FD0D4E90123F9188A422FD3F9
:108C4000ADF81A3006A8FF238DF81E30ADF8189045
:108C5000ADF81C5019F067FDA1682B46424620462E
:108C600019F0F6FD29468246E06A19F065FDA26812
:108C70000244A260BAF1000F07D106A9204619F0FC
:108C800021FE002814BF8246AA46019817F0FCFE78
:108C90005646304609B0BDE8F08F5744BFB2BAE738
:108CA0000821E06A19F048FD4FF6FF73ADF818305F
:108CB0000023ADF81C301318ADF81A30A38902EA6E
:108CC0000B021A44101A606006A819F02CFD06A9C0
:108CD000204619F0F7FD211D204619F0AEFC63680F
:108CE00003EA0B03A360204619F012FE8246002817
:108CF000CBD101369CE76FF01B0AC6E76FF00C067C
:108D0000C7E76FF01506C4E70000FFFFF0B40C4B97
:108D10000C4E5F6A0C4BB34203D36FF08500F0BC7E
:108D200070475D68BD4209D31C693CB195F802C02B
:108D30000579AC4502D12346F0BC18472433EAE755
:108D40007C1A0020010F0020010F00202DE9F047C0
:108D5000134CDFF85080DFF8509005460E4617465A
:108D6000444503D36FF08500BDE8F0876268D9F809
:108D700024309A4212D3A36983B19078297988422A
:108D800005D13A4631462846BDE8F04718475279A2
:108D9000012A03D13A463146284698472434DFE772
:108DA000010F0020010F00207C1A00202DE9F04166
:108DB0000B4CDFF8308005460E461746444502D37B
:108DC0006FF0850009E063690BB92434F6E73A4691
:108DD0003146284698470028F7D1BDE8F08100BF0A
:108DE000010F0020010F002007B583788DF80030B7
:108DF0000379427943EA0223ADF80230C37868462A
:108E000003F003038DF8043013F06CFE10F1780FBB
:108E100004D018B1002003B05DF804FB9DF80000F9
:108E200013F0E8FE10F1780F01D00028F2D1024BC8
:108E3000012083F8B900EEE77C1A002002480822DE
:108E400000211BF074BA00BF371B002070B50B4B1C
:108E50000B4CA34201D3002070BD196A1E7F002273
:108E60000439D5B2AE4201D82433F2E7013211F809
:108E700032508542F5D10120EEE700BF010F0020FE
:108E8000010F002008B509480378C3F341130A33E2
:108E900050F823303BB100F1080200F1100198476F
:108EA000C043C00F08BD1846FCE700BF7C1A002075
:108EB00004282DE9F047DFF88C8004460E4613D1D4
:108EC000FFF7BCFF204B93F8B930ABB100F0F2FCD8
:108ED0001E4D454526D2D5F8209000272A7FFBB2AB
:108EE0009A4217D82435F4E7052810D1164B93F889
:108EF000B9300BB100F0DEFC144D454517D3124BD1
:108F00001B6AE3B131462046BDE8F0471847012807
:108F1000F2D1D7E709EBC3030137187913F094FEB8
:108F20000028DBDA084B002283F8B920E4E7EB687D
:108F30001BB132462146284698472435DDE7BDE877
:108F4000F08700BF010F00207C1A0020010F0020D5
:108F500073B5C4B263060D468DF8074007D02046AE
:108F6000FFF774FF78B10D4B93F8BA0058B10B4E70
:108F7000204655B113F0DAFDF3691BB10DF107017D
:108F800008209847012002B070BD13F0F7FDF36987
:108F9000002BF7D00DF107010920F2E77C1A002021
:108FA0002DE9F047A44EB36904460F461546FBB9B8
:108FB000237803F01F03012B00F09D80022B00F0AB
:108FC000078133BB94F900002A686178002834DAFD
:108FD000062912D008292BD0D9B90123137051705A
:108FE00096F8C3305B0043F00103137002232CE1B9
:108FF00098470028DCD100200DE06288100A011F8C
:109000000129844605D9072803D8716AD2B20C78A1
:109010001CB96FF01500BDE8F0874E78664503D1A6
:109020009A4200F00D8101332144F0E70B780CE106
:1090300096F8BA301370012307E101390829E8D8FE
:1090400001A353F821F000BFE19002001390020049
:10905000EF900200139002006D9002001390020046
:10906000139002001390020079900200A07813F090
:1090700027FD0028BFD0CCE76388756A63BBFFF784
:10908000DDFE638886F8BA30F369002BB3D06B49F4
:1090900003209847AFE76B78042B10D0052B11D035
:1090A000022B04D16F796388BB4208BF01202B7863
:1090B0001D442B78002BEED10028AAD0DFE795F8CD
:1090C0000380F4E76388BB42F1D1B8F1000FEED121
:1090D0002846FFF789FEEAE7FF270020B846E8E7C1
:1090E0006388012B95D1002386F8C33083E763881A
:1090F000012B8ED1F8E796F8BA30D5F800C0002BD6
:1091000087D0756AA38894F804E02A46107800286E
:109110003FF47FAF5178022904D192F80480F045E2
:1091200000F295800244F1E78CF800208CF80120D1
:10913000396060E7154496E00B2A7FF46AAF002798
:109140004FF0FF08C146BA4606E06B78042B0FD0FB
:10915000052B21D02B781D442B78002BF5D1F369FA
:1091600013B1514607209847002F7FF444AF50E7D2
:1091700095F80280A38895F803909845EAD1638812
:109180009945E7D1B8F1070F1FD806EB0803AA46A7
:1091900083F8BB900127DDE7A3884345DAD1A378A4
:1091A0004B450DD0AF78384600F066FB384613F0DB
:1091B0004BFD10F1780FEDD0B0FA80F77F09C9E7C9
:1091C0002846FFF711FE0746C4E7AA460027C1E775
:1091D00094F900206378002A18DA002B7FF419AF85
:1091E00024792D6863060AD02046FFF72FFE002859
:1091F0003FF40FAF96F8BA30002B3FF40AAF294680
:10920000204613F0DBFC00236B70EFE6012B08D047
:10921000032B7FF4FEAE6388002B7FF4FAAE0121AE
:1092200003E0618800297FF4F4AEA088FFF790FE88
:1092300000287FF4E0AEECE67C1A0020361B00200C
:10924000022829607FF4F2AE4B883B60D3E694F9A4
:10925000000062780028BFF66FAF002A3FF464AFC9
:109260000A2A7FF4D6AE2A78002A3FF4D2AE697873
:1092700004297FF45FAFA9788B427FF45BAF072BA3
:1092800096BF9B19002393F8BB308CF80030D2E6D0
:1092900013B5134C237DCBB9E268A168019201ABF1
:1092A000802019F06DFC019AA3681344A360E36861
:1092B0009B1AE36043B93AB12369E2889A4203DD1D
:1092C0009B0601D10123237502B010BD00231A466D
:1092D00019468020237502B0BDE8104013F0DABCB7
:1092E0007C1A002030B585B0002302460D4601935C
:1092F000002858D1002935D108220B460DEB020178
:109300001DF0D7FF002804DA802013F00FFC05B011
:1093100030BD2A4C029A2260039A626004F138023E
:10932000A2609DF90820BDF80E302575002AC4E919
:1093300003550ADB802B04D9802013F0F7FB0020B3
:10934000E3E713B1C4E90333E1E7FFF79BFD00282E
:10935000DAD0E28823699A42D4BFE260E360FFF783
:1093600097FFD4E7154CD4E90215002D01AB04DCBE
:109370001DF09FFF0028CADAC6E72A461DF099FFB4
:109380000028D9DB019AA3681344A360E3689B1A01
:10939000E360002BBBD104F13803A360FFF772FD3B
:1093A0000028DCD1B0E78028B1D1044BDA68002A6C
:1093B000D5D11B7D002BD2D1A9E700BF7C1A00209C
:1093C000054B064A9A62064ADA62064A1A63064A58
:1093D00058629A61002070477C1A0020A18F020019
:1093E0000D8D0200AD8D02004D8D020010B5084BB1
:1093F00093F8B84034B900F0CBF830B1FFF7E0FF94
:10940000204610BD6FF07700FBE74FF0FF30F8E724
:109410007C1A00202DE9F3410446354D35484FF0C4
:10942000FF324FF0FF3317F0B5FA95F8B860002E11
:109430005BD131482C62E86113F046FD13F002FB6A
:10944000041E36DB00F05AFA041E32DB4023684665
:10945000ADF802308DF804608DF8006013F042FB27
:10946000041E26DB802768468DF8007013F03AFB57
:10947000041E1EDB2149304613F012FD041E18DBCA
:109480001E49384613F00CFD041E12DB1C4CDFF89D
:109490007480444514D3002013F0ACFB041E08DB99
:1094A000802013F0A7FB041E03DB012385F8B830EE
:1094B0000024104817F0E8FA204602B0BDE8F08119
:1094C000276A0026227FF3B29A4201D82434E0E7CB
:1094D00007EBC30257F83310107913F0E1FC0136A3
:1094E0000028EFD04FF0FF34E3E76FF07704E0E7B8
:1094F0007C1A0020C80C0020B18E0200E592020008
:10950000010F0020010F002030B51F4B8BB005AAC2
:1095100003F1100518685968144603C40833AB42B8
:109520002246F7D11B7823701022002101A81AF0DF
:10953000FEFE1222002115481AF0F9FE102101A8A2
:109540001DF0CBFF00281BDD0828B8BF0820093814
:1095500001AB0E491A18002012F8013F0AAC04EBC7
:10956000131403F00F0328336B44013014F8144C28
:1095700013F8143C0C7008284B7001F10201EBD178
:1095800002480BB030BD00BF90A60400573A00203F
:109590002DE9F04F644C85B000264FF0011BB14619
:1095A0003546B24623782BB9604B02349C42F3D146
:1095B0005D481CE06378052B05D8DFE803F07B04E9
:1095C000037B0725A24623781C44EBE7E378002BB6
:1095D000F9D1A37873B109F101095FFA89F9F2E7CA
:1095E0006A68944209D024359D42F9D3002005B021
:1095F000BDE8F08F4E4D4F4BF6E7AB68002BEAD03D
:10960000494620469847E6E7002DEFD00023012188
:109610002A7F9342EAD22A6AA77802EBC302107922
:10962000874201D00133F3E70127E07800F003001F
:109630008DF80C00207994F805C040EA0C20ADF8B4
:109640000A0094F9020000285FFA87F827DA07F188
:10965000100001FA00F010EA0B0F27D148F080004B
:109660008DF8080002A8CDE900321DF00AFEDDE900
:1096700000320121D0B99DF80830A37013F0800F9B
:1096800018BF08F11008137118BF5FFA88F80B466D
:109690000CBFBB4001FA08F34BEA030B93E701FA56
:1096A00007F010EA0B0F01D14046D9E70137102F20
:1096B000BBD1B7E7032E1DD1FFF726FF074668B1E0
:1096C0001AF0F3FD804648B11B481AF0EEFD8045C4
:1096D00004D142463946A01C1AF01EFE23786FF0D2
:1096E0000201E218091B04EB5303D14213D50136E2
:1096F000F6B268E7002EF1D1BAF1000F3FF476AF71
:10970000A4EB0A038AF80230C3F307238AF8033074
:109710008AF80490EBE74FF0000002F8010C13F810
:10972000010902F8020DE0E7A40E0020010F00205D
:10973000010F0020010F002090A6040010B5094B76
:1097400000211A461C78844205D15C681CB148236C
:1097500003FB012010BD0131042903F14803F1D1BD
:109760000020F7E7401B00202DE9F34150F8303C82
:1097700010F8346C1033044610D1036950F8282CCB
:1097800099073CD502BB13F0040304D11A461946CD
:10979000304619F0F5F9002344F8303C54F8303CD9
:1097A00010330ED054F8205C5DB154F8247C54F88A
:1097B0001C8C1EF097FB00284CD02E4821461EF032
:1097C00053FD02B0BDE8F08150F82C1C01AB3046CF
:1097D00019F0D6F910B16FF01503DDE7019A54F8CE
:1097E0002C3C134444F82C3C54F8283C9B1A44F875
:1097F000283C54F8243C134444F8243CCEE750F869
:109800002C1C01AB304613F0C1FA0028E3D1019DB6
:1098100054F82C3C2B4444F82C3C54F8283C5B1B5B
:1098200044F8283C54F8243C2B4444F8243C002DB4
:10983000B1D0304613F04EFBB5FBF0F303FB1055EF
:10984000002DA8D154F8283C002BA4D0304613F0AA
:10985000E5FAA3E744F8200CA4F1180017F084F906
:1098600054F8303C8C33ACD0424639463046A84799
:10987000A7E700BFC019002010B54FF02003EFF399
:10988000118483F31288BFF36F8FFFF757FF50B136
:109890004368103307D16FF08B03436000F134014C
:1098A00003481EF0E1FC84F31188BFF36F8F10BDF5
:1098B000C019002070B50F4C04254FF02003EFF3C2
:1098C000118683F31288BFF36F8F6368103307D15B
:1098D0006FF08B030848636004F134011EF0C4FC90
:1098E00086F31188BFF36F8F013D04F14804E4D182
:1098F00070BD00BF401B0020C019002070B50A4C8D
:109900000A4E0025314620461EF081FC0122A4F1BA
:109910001800114601351EF0F8FB042D04F148042F
:10992000F0D1002070BD00BF741B002069970200B9
:1099300070B5114B1C680D46DCB1104B1968002343
:109940008B4202DB6FF0010070BD224612F8106BF3
:10995000864202D001331446F2E7E06810B96FF096
:109960001200F1E71EF0D8F90028F8D02C60002092
:10997000EAE76FF00C00E7E7540300201C920400B4
:1099800070B588B005460C46C0B269461646FFF76A
:10999000CFFF00281BDB0098C8B14368029383689F
:1099A00022680195CDE903360023CDE9062305930E
:1099B000C56819F0FDF86DB12846084901AA1DF0E7
:1099C000FDFD079808B9059B236008B070BD6FF0D6
:1099D0001500FAE76FF01200F7E700BFB32B0400A1
:1099E0002DE9F0410F4B1C6805460E461746ACB1F9
:1099F0004FF0FF324FF0FF330B4816F0CBFF636898
:109A00003246D3F8088029463B462046C0470446E4
:109A1000054817F039F82046BDE8F0816FF00104E1
:109A2000F9E700BF601C0020B40C00200023036095
:109A3000044B5A6812B9C3E90000704710605860BF
:109A4000704700BF641C0020014B1860704700BFC6
:109A5000601C002030B585B000230546CDE90233F7
:109A600001904FF0FF330C484FF0FF3216F092FF99
:109A70000A4B1C684CB9284600F0CEF8044606484C
:109A800017F002F8204605B030BD636820461B6819
:109A900001A998472468EDE7B40C0020641C00205D
:109AA0001FB5CDE9010103924FF0FF330A484FF093
:109AB000FF3216F06FFF094B1C682CB9064816F0F0
:109AC000E3FF204604B010BD636820461B6801A96F
:109AD00098472468F1E700BFB40C0020641C002004
:109AE000024B0022C3E90022704700BF641C002023
:109AF000024B0022C3E90022FFF7F2BF6C1C0020DA
:109B000070B51B4C1B4E0546B44212D31A4E1B486F
:109B10004FF0FF324FF0FF3316F03CFF34687CB15A
:109B2000286854F8141C143C1AF0C6FBC8B16469C8
:109B3000F5E7216828681AF0BFFBA8B11434E3E701
:109B400000226A61726805F114033AB9C6E900336C
:109B500000240A4816F098FF204670BD1360736019
:109B6000F6E76FF01004F4E76FF01004F4E700BFBD
:109B7000E08D0400588E04006C1C0020B40C002002
:109B80002DE9F74307460C4609B100230B601F4D32
:109B9000DFF87C9000264D450FD31E4B1D6885B322
:109BA00055F8148C01AA41463846143D19F027F89F
:109BB00010B3D6B914BB2E461EE0D5F8008001AA1A
:109BC0004146384619F01BF850B116B954B92E4623
:109BD00006E031680022404619F011F80028F5D15E
:109BE0001435D8E7019B2360F1E731680022404635
:109BF00019F005F80028DDD16D69D0E7019B2360DD
:109C0000D9E7304603B0BDE8F08300BFE08D040023
:109C1000588E04006C1C0020F8B5184C184F0646EE
:109C20000025BC4208D3174B1C682CB3143CB6B9B2
:109C3000E368E3B96469F8E72EB9E3685BB92846DD
:109C400014340546EDE720680022314618F0D7FFAE
:109C50000028F2D1F3E79847002DF0D1F0E7206813
:109C60000022314618F0CBFF0028E1D1E2E7984707
:109C7000002D08BF0546DDE72846F8BDE08D04004D
:109C8000588E04006C1C002010B5074C23780BB1D3
:109C9000002010BDFFF72CFF00F066F80028F8D177
:109CA00001232370F4E700BF693A00202DE9F04753
:109CB000048FDFF8B0A0013498B080468946A4B282
:109CC00000F10806651EADB2B5F5004F47D04A2336
:109CD00005AA2946304618F04CFF04F57F543F345E
:109CE000A4B20746214601230DF10B02304618F0BD
:109CF00040FF002F014603DC002803DC2C46E1E78F
:109D0000002816DCB8F83830AB4209D142466B1E49
:109D100022F8383F4FF4004102233046FEF726FF79
:109D20002946304618F0C1FE2146304618F0BDFEE7
:109D3000E4E707F160030DEB0307002307F84C3C51
:109D40005246CDF8009003AB05A80396ADF810403D
:109D500018F08BFF0028D1D018B0BDE8F0870020A4
:109D6000FAE700BFD92C04007FB501236946022021
:109D70000193FFF7DDFD0446002834D102AA01A9B2
:109D80000220FFF7FDFD10F1130F04462BD038B170
:109D90000C3405D0404080F311884FF0040002DFFE
:109DA0000399B1F5803F23D2009A002394681846A6
:109DB000084484421AD30133082BF9D10E4DA982ED
:109DC000EB825368AB602846D368EB6319F01EF84A
:109DD000044640B9094E6E602846FFF727FE284624
:109DE0006E60FFF731FE204604B070BD9BB2E5E720
:109DF0006FF02004F7E700BF741C00205803002018
:109E00002DE9F84305464FF02003EFF3118683F365
:109E10001288BFF36F8F0E4B0E4F1C68DFF838802F
:109E20004FF00C092CB986F31188BFF36F8FBDE892
:109E3000F883D4E90123002D18BF13462BB198F8FD
:109E4000142009FB02F2B85C98472468EAE700BFD7
:109E5000CC1C0020C01C00207839002070B5194BA4
:109E60001C7DBFF35B8F04F01F0301229A40164B49
:109E7000610903EB8103D04353E8001F01EA0005A9
:109E800043E80056002EF7D1BFF35B8F0A4213D090
:109E90000E4B0F4D8BB10C236343EA18E85C5178ED
:109EA0001AF067FA0020FFF7ABFF0C235C432A1976
:109EB00000232B51C2E9013370BD83F31188BFF336
:109EC0006F8FEFE778390020D41C00207343040023
:109ED000C01C00202DE9F041354B07461D7D4FF099
:109EE0002003EFF3118883F31288BFF36F8F0C24E4
:109EF000304B314E6C431A19195D00294CD007CAFA
:109F000006EB040C8CE8070000221A5588F3118830
:109F1000BFF36F8F0C236B43F218F05C002839D02D
:109F20007B1C10D0D2F808C0244C254A4FF40040C6
:109F30000021ECFB004100232046FCF7E1F8012161
:109F4000381A1EF036FB17F05DFA0120FFF758FFB4
:109F5000BFF35B8F1B4B6A0903EB820305F01F0104
:109F600001228A4053E8000F104343E80001002912
:109F7000F8D1BFF35B8F144B3BB10C2303FB05F00F
:109F80003318305C59781AF0E8F9FFF767FF17F0DB
:109F90004DFA0120BDE8F0810146284600F016F890
:109FA0000028B3D007C8344484E80700AEE700BFF8
:109FB00078390020B41C0020C01C00203F420F0054
:109FC00040420F00D41C00205B4304002DE9F04FF9
:109FD00085B00E4603A900F043F81E4B039DD3F84D
:109FE00000A0DFF87480431E1BB203EB430304465A
:109FF00005EB83054FF400474FF0000B24B9A14651
:10A00000484605B0BDE8F08F6868144AC446594612
:10A01000E0FB07C100236046FCF772F80190A868D6
:10A020000E4AC4465946E0FB07C100236046FCF7D0
:10A0300067F8BAF1FF3FA94601D0824505D9731CE4
:10A04000DED0019B1844B042DAD9013CA4B20C3DE9
:10A05000D4E700BF6C0300203F420F0040420F00D6
:10A0600008B9024B0B600020704700BF60920400EB
:10A07000014B1868704700BF70030020F0B508223C
:10A0800089B019F09AF8CB6A03930B6B04934B6B6E
:10A0900005938B6B0693CB6B079313466A460C466E
:10A0A0000646002711461046CDE90177009718F0C3
:10A0B00092FF31460546304618F08DFF216B039123
:10A0C000616B0491A16B0591E16B0544CDE9061725
:10A0D0001046114618F07FFF31460544304618F00F
:10A0E0007AFF0544206A0090606A0190A06A02909D
:10A0F000A06B0690E06B07903046CDE9047703979C
:10A1000018F069FF0544606A0090A06AD4F838C06E
:10A110000190E06A0290CDF810C0606BD4F83CC0AA
:10A120000390CDE905C0206A0790304618F053FF30
:10A130000544E06A0090206B0190606B0290206AF9
:10A140000690A06A07903046CDE90477039719F08E
:10A1500067F8236B0093636B0193A36B0293E36B2C
:10A160000393636A0693E36A07932D1A0823304624
:10A1700019F056F8636B0093A36B0193E36B0293A2
:10A18000236A0393636A0493A36ACDE90537236BBB
:10A1900007932D1A0823304619F042F8A36B009359
:10A1A000E36BCDE90137636A0393A36A0493E36A1F
:10A1B0000593636B07932D1A0823304619F030F886
:10A1C0002D1A10D40D4C35B908223146204619F00D
:10A1D00000F801280FD0082322463146304619F0F6
:10A1E0001FF82D1AEFE7054A08233146304618F0CC
:10A1F000F2FE2D18F8D409B0F0BD00BF649204003F
:10A200000449431E0F3013F8012F8A5C1A708342F1
:10A21000F9D17047A1A60400F0B5264E07460C46BA
:10A220000FCE8DB001AD0FC50FCE0FC596E807005C
:10A2300085E807003846002F38D0002C38D0381F6A
:10A240002146024610344B780D781B0443EA05631F
:10A25000CD782B438D78043143EA05238C4242F8B4
:10A26000043FF0D1144C04218A07036916D1C3F3CB
:10A270000742A55C1A0EA25C42EA0562C3F30725F9
:10A28000DBB2655DE35C42EA054242EA032221F06B
:10A29000030330336B4453F82C3C534050F8042FE5
:10A2A000013153402C290361DED101200DB0F0BDF6
:10A2B0002046FBE7748E0400A1A604000149102289
:10A2C0000A60704710ED00E072B6404080F31188DC
:10A2D000BFF36F8FBFF34F8F30BF62B6BFF36F8F87
:10A2E000704700BF72B6494081F3118820BF80F3E8
:10A2F000118862B6704700BF40B2002807DB044AED
:10A300004109012300F01F00834042F821307047CB
:10A3100000E100E040B200280CDB4309064900F0F0
:10A320001F0020330122824041F82320BFF34F8FCA
:10A33000BFF36F8F704700BF00E100E0054B42099B
:10A3400000F01F0053F82220012303FA00F0104010
:10A35000704700BF00E100E040B20028A8BF00F154
:10A36000604001F10101B8BF064B4FEA4111ACBF9B
:10A3700000F5614000F00F00C9B2B4BF195480F875
:10A380000013704714ED00E008B572B6044B9A69EB
:10A390001AB100229A611DF0B0FD62B608BD00BF7F
:10A3A0007839002030BFFFF7FDBF00BF0F4A08B566
:10A3B0000F4B22F07F029A60BFF34F8FBFF36F8F76
:10A3C000D3F8882022F47002C3F88820EFF31483B6
:10A3D00023F0040383F31488BFF36F8F16F058F84B
:10A3E00017F060F900F09CF916F092F80060020096
:10A3F00000ED00E0094A0A4993680968D9670949EC
:10A4000098674B6843F080534B60002383F31188B7
:10A41000BFF36F8F9368D86F704700BF7839002003
:10A4200090A4040000ED00E00F498A684FF030006E
:10A430001044EFF3098C80E8F01F202080F312888D
:10A44000BFF36F8F094F4FF00066CA698A603E60A4
:10A45000906F0023936780F3118802F1300090E839
:10A46000F01F8CF3098870477839002004ED00E074
:10A470001EF0040F0CBFEFF30880EFF30980816931
:10A4800011F8021C0229FFD001B519F0EDFD01BD44
:10A4900042F8203C009B42F81C3C0A49019B42F8D0
:10A4A000183C029B42F8143C21F001014FF08073EC
:10A4B00042F8043C42F8081C0023203A02658367F6
:10A4C000704700BF2B220400074B9860104681F3B1
:10A4D0000988002163B681F31188BFF36F8F0022D2
:10A4E000002317F0A2FE00BF7839002001B572B634
:10A4F0000B4A906900281EBF002191611DF0FDFCF0
:10A5000062B6EFF30580A0F110004FEAC0000549E4
:10A51000014409C99847BDE80140034908470000C4
:10A5200078390020B08B04002DA50200044B9968F7
:10A53000D869884203D003494FF080520A607047BF
:10A540007839002004ED00E00D4B9A6A9A6A9A6A05
:10A55000920508D59A6B9A6A120404D518B19A6AC2
:10A5600022F400429A629A6A9A6AD205044A58BF53
:10A570009B6A936A002043F47F439362087070479C
:10A5800000ED00E0114B9A6A9A6A9A6A920708D520
:10A590005A6B9A6A120604D518B19A6A22F08002A0
:10A5A0009A629A6A9A6A9A6AD00658BF9B6A074B5F
:10A5B0009A6A920642BF5A6A22F400525A629A6A12
:10A5C000002042F0FF029A620870704700ED00E040
:10A5D00070B5494B5B688AB00646C3F30803002593
:10A5E00085F31188BFF36F8F02F07F40B0F17F4F8A
:10A5F00011D102F00C0008280DD010074CBF0E46F8
:10A6000001250022033B8DF80720032B4CD8DFE8FF
:10A6100003F00464686C2E46F3E7374BDA6A91075F
:10A6200042D4DA6A002A3FDBDA6A52003CD55A6922
:10A63000B16942F480725A61BFF34F8FBFF36F8FDD
:10A640005A6931F8021C22F480725A61BFF34F8FAD
:10A65000BFF36F8F4DF60272914208D09A6AD2B260
:10A660003AB10DF107010120FFF78CFF0AE03468D1
:10A670001BE09A6A12F47F4F06D00DF1070101200A
:10A68000FFF762FF044610E09A6AB2F5803F0BD3F1
:10A690009A6A9A6A9A6A9A6A9A6A9A6A9A6A6FEA45
:10A6A00002426FEA12429A6200249DF8073093B981
:10A6B0002022314602A819F02FFE099BBDB1C3F339
:10A6C000080222B96FEA53236FEA4323099302A9D0
:10A6D000204619F0C7FC0AB070BD0DF1070100203B
:10A6E000C2E70DF107010020CAE7034BD0E723F4CE
:10A6F000FF7323F00103E9E700ED00E0024A53692C
:10A7000043F010035361704700ED00E0EFF3088061
:10A71000EFF3098101B57246FFF75AFF01BD00BF93
:10A72000044800232021C2180133302B82F8001383
:10A73000F9D1704700E100E0FEF73AF8202080F3FD
:10A74000118808484FF40061401880F30988EFF33E
:10A7500014800221084380F31488BFF36F8FFFF742
:10A7600025FE000010580020084B9B6883420BD147
:10A77000EFF3058343B1064B5A6842F080525A60AA
:10A780005A6A22F400425A6216F01ABF7839002041
:10A7900000ED00E0024B034A0348012100F060B8DD
:10A7A000000004200000002010930400F0B5204EAB
:10A7B00000258D4239DA446874B353B104F1FF3C8B
:10A7C00014EA0C0F2FD11F2C2DD907681CEA070F94
:10A7D00029D1202C0768D0F808C05FFA82FE1ED964
:10A7E000B4F1004F1DD8013CB4FA84F4C4F11F0445
:10A7F0006400BEF1070F4CEA040C14D827F01F04C4
:10A80000144344F01004C6F89820C6F89C404CF05D
:10A810000104C6F8A040013201350C30C9E7082414
:10A82000E7E73E24E5E76FF015021046F0BD00BFF4
:10A8300000ED00E0044B0522C3F89420BFF34F8FD6
:10A84000BFF36F8F704700BF00ED00E0BFF35F8F75
:10A85000024B0022C3F89420704700BF00ED00E0D7
:10A8600010B5034C01232278FFF7A0FF207010BD24
:10A870006A3A002014490868082810B521D8FFF763
:10A88000E5FF124C49680022904201F10C0105D10C
:10A890000F4B1870FFF7CEFF002010BDC4F89820B2
:10A8A00051F80C3C23F01F03134343F01003C4F88A
:10A8B0009C3051F8043C43F00103C4F8A03001324D
:10A8C000E2E74FF0FF30E8E71C93040000ED00E002
:10A8D0006A3A00200CB410B586B009B90DF10B002E
:10A8E0000024CDE9040109AB089A009404A90548A5
:10A8F0000393FDF725FD049B1C7006B0BDE81040D6
:10A9000002B07047414304004FF02003EFF311827F
:10A9100083F31288BFF36F8F06490123C1F84035D6
:10A920004FF08041C1F8783582F31188BFF36F8F03
:10A930000020704700E001404FF08043C0B2C3F8F0
:10A940001C05BFF34F8F0549054BCA6802F4E0624E
:10A950001343CB60BFF34F8F00BFFDE700ED00E076
:10A960000400FA0520B1034B800143F001031847AE
:10A97000704700BFE08E0400F8B5594EBFF35B8FFF
:10A980003468BFF35B8F14F0010450D0554F564C20
:10A99000564D57483A46214618F071FAE0B3202246
:10A9A0002946204619F0A8FC0028F2D000274FF0D5
:10A9B000FF324FF0FF33012000F070FA00F108057C
:10A9C0000221044628461CF002FC3E230370422369
:10A9D0004370012128461CF0FAFB08230370412133
:10A9E00028461CF0F4FB054600F8017BB7B1402275
:10A9F000002119F09CFCBFF35B8F56E8003F23F069
:10AA0000010346E80032002AF7D1BFF35B8F2046EE
:10AA1000BDE8F84000F092BE1F27C8E7344919F09E
:10AA2000F8FC203105F1210019F0F3FCE3E7BFF356
:10AA30005B8F3368BFF35B8F9B0750D529492C4848
:10AA400019F0DBF8002811DBBFF35B8F2649336870
:10AA50002648BFF35B8F13F0040F01F12002214B56
:10AA600018BF0146104618F059FA04464FF0FF325D
:10AA70004FF0FF33012000F011FA00F10807022126
:10AA8000054638461CF0A3FB3E2303702223437087
:10AA9000012138461CF09BFB092303702121384615
:10AAA0001CF095FB034601309CB91F221A70FF2150
:10AAB000202219F03CFCBFF35B8F56E8003F23F0E7
:10AAC000020346E80032002AF7D1BFF35B8F284625
:10AAD0009EE7002206491A7019F09BFCEBE7F8BDCF
:10AAE000D81C00203C9304006B3A0020CAA7040045
:10AAF0008B3A002070B5214CBFF35B8F2368BFF306
:10AB00005B8FDA0706460D4601D50C2070BD012982
:10AB100031D8BFF35B8F54E8003F43F0020244E8B2
:10AB200000210029F7D1BFF35B8F9B07EDD41448B8
:10AB3000314619F06EFC134806F1200119F069FC4A
:10AB4000BFF35B8F75B154E8003F43F0040344E862
:10AB50000032002AF7D1BFF35B8F0B4800F062F997
:10AB60000020D3E754E8003F23F0040344E8003218
:10AB7000002AF0D0F6E71220C8E700BFD81C00205A
:10AB80008B3A0020AB3A00207403002070B5067D9C
:10AB9000044676B983681D8842F22602954245D064
:10ABA0000FD842F2010295424FD042F225039D4256
:10ABB00013D02A4BD3F8543120465B69BDE870406E
:10ABC000184742F25E039D42F3D1032108301CF086
:10ABD0001DFBA06890F840102EE0032108301CF007
:10ABE00015FB204611F094FBBFF35B8F1C4B1A68DA
:10ABF000BFF35B8F920707D50C26314642F2250042
:10AC000019F0E3FB002070BDBFF35B8F53E8002F0A
:10AC100042F0010143E800100028F7D1BFF35B8F39
:10AC2000D307E9D40F4800F0FDF8E6E70321083028
:10AC30001CF0ECFAA0683146FFF75CFF06462046A0
:10AC400011F066FB31462846DAE7DA7802F07F0237
:10AC5000DA701A7922F001021A71AAE700000020C6
:10AC6000D81C00207403002003490448CA79C2EBB1
:10AC7000C202FEF7B5BE00BF00000020EAA7040034
:10AC8000F7B51B4CBFF35B8F1F462368BFF35B8F89
:10AC90001646DA07054624D518B96FF0010003B04F
:10ACA000F0BD01A917F0CFFF12490246284619F05E
:10ACB0000FFB0028F1D1BFF35B8F2368BFF35B8FDD
:10ACC000C3F3C0051B070CD4CC3C072221463846F1
:10ACD000B047062807D807222946204619F027FB47
:10ACE000E5710020DBE70723B0FBF3F0E071F8E744
:10ACF000CC000020EAA504002DE9F04188B09C7941
:10AD0000DDF838805D791E79DF7893F802C093F81A
:10AD100001E01B78B8F1000F0ED0CDE90638CDE97F
:10AD200004CE1346CDE90267CDE90045084A17F085
:10AD300058F908B0BDE8F081CDE905E3CDE9037C21
:10AD40001346CDE90156034A009417F04AF9F0E79B
:10AD5000F0A7040014A80400014816F0A3B800BF2F
:10AD60008403002070B51A4CBFF35B8F2368BFF3D8
:10AD70005B8F13F0010F25461DD014F8C53CA4F1DC
:10AD8000CC06D3B1BFF35B8F2368BFF35B8F5A0749
:10AD900001D400F07FFDBFF35B8F55E8003F23F443
:10ADA000803245E800210029F7D1BFF35B8FDB0338
:10ADB00001D5FFF7D1FF002009E001F011F830B90B
:10ADC000F379002BDED101F04BF80028DAD070BD0A
:10ADD000CC00002030B50A4D0A4B85B0002428462F
:10ADE000029303941DF051FA02AB009328460649E2
:10ADF0000A234FF4A36216F05BF8204605B030BD7D
:10AE00007810002035A80400B84000200146014811
:10AE100016F086B8781000200146014816F0B0B848
:10AE200078100020014601481DF01EBA781000205D
:10AE300030B4034608461A78012A13D0022A26D0D5
:10AE400072B9154A02F1100452F8045B41F8045B30
:10AE5000A242F9D112780A705B8843731B0A83738C
:10AE600030BC70470C4A02F1100452F8045B41F800
:10AE7000045BA242F9D112780A705B684373C3F392
:10AE800007221B0CC3731B0A82730374E8E730BCF0
:10AE90001122194619F040BA3EA8040038B50546FB
:10AEA00005481CF032F9044620B1002108301CF09E
:10AEB0004BF92575204638BD4C0E002010B50B46C9
:10AEC0000A490246D1F8380120B9BDE810400120F6
:10AED000FFF7E4BF1CF049F90123002103758181CC
:10AEE000044608301CF030F9204610BD0000002058
:10AEF00070B504460F2C0D461046194605D80D2C8A
:10AF00000DD9BDE87040FFF7D9BF132C07D10C480D
:10AF10001CF0FBF8044638B90024204670BD0246F8
:10AF20000B4645B10748F3E7002108301CF00CF947
:10AF300001232375F1E7BDE870400120FFF7AEBFA4
:10AF4000780E0020C80D002038B58368B3F80140A2
:10AF50001B7863B9204601F013FD054640B9084B44
:10AF60001A8822B96FEA04506FEA1050188038BD71
:10AF7000012101F00DFD2846BDE838401AF009B95D
:10AF8000B839002010B5084C0146052294F8670036
:10AF900001F002FF38B994F867000449BDE8104099
:10AFA000042201F0F9BE10BD00000020B0A704008B
:10AFB00010B50121044608301CF030F92146034A3F
:10AFC0000078BDE810400A2319F070BB74940400A7
:10AFD000F8B5074690790E46144611F0D7F8284B7D
:10AFE00083424BD1204611F0D9F8264D0C2303FBA8
:10AFF00000504388BB4241D1234FD7F8380120B1DC
:10B0000011F086F90023C7F83831204611F0C6F850
:10B010000C2707FB005043689BB196B9204611F0FE
:10B02000BDF807FB005001214268D2E90003127A03
:10B0300003F01F07B9405B09D2B100EB830019F0A0
:10B04000B1FA204611F0AAF80C2707FB00508368DC
:10B05000A3B1204611F0A2F878432E54204611F0F7
:10B060009DF807FB0055A868BDE8F84015F07CBDC9
:10B07000C94300EB830019F030FBE2E7F8BD00BFE5
:10B08000200E0020DC1C00200000002038B5042128
:10B09000044608301CF0C2F8457801784088224602
:10B0A000FFF796FF25B10348BDE8384015F05CBDB9
:10B0B00038BD00BF2001002038B503210446083008
:10B0C0001CF0ACF8A36805781978B0F801002246A6
:10B0D000FFF77EFF25B10348BDE8384015F044BDB9
:10B0E00038BD00BF200100202DE9F0473C4FDFF8BC
:10B0F000F48007F11409FB6848466FF39433FB6052
:10B1000001F004FC451C36484FF0FF324FF0FF338E
:10B11000294616F0D7FC60B13349344840F6D313C2
:10B12000424617F051FA404080F311884FF0030077
:10B1300002DF2B4E15B916F0A1F9DCE7F368C3F373
:10B140008633042B42D1337B002B42D12848002286
:10B1500000231BF0DFFF044660B92649234840F670
:10B160006C13424617F030FA404080F311884FF0DC
:10B17000030002DFDFF880A020484FF0FF324FF0DD
:10B18000FF3315F017FDDAF8380120B111F0C0F8DF
:10B190000023CAF8383120461BF0E7FFCAF838010F
:10B1A0002046FFF7F3FC88B1144815F0DDFC20467B
:10B1B00010F0F4FF124B0C2202FB00301F214088DC
:10B1C0002246FFF705FF204611F0A2F81436013D94
:10B1D000B0E7012BFAD13069383801F0C1FEF5E74C
:10B1E000940300204FA8040083A804008CA8040046
:10B1F0003C010020A9A8040000000020200100203C
:10B20000DC1C002010B5C1E900239DF808300B724A
:10B210000C4610F0C3FF034B0C2202FB00335C60B2
:10B2200010BD00BFDC1C00202DE9F0474FF0FF32BD
:10B230004FF0FF3306461748174D0F461BF065FFCA
:10B24000044600F1080A00214FF0000850461BF0A8
:10B250007BFF84F81480204610F0A0FF4FF00C090B
:10B2600009FB00504680204610F098FF09FB005073
:10B27000C0F80880204610F091FF09FB005503211B
:10B28000C5F8048050461BF0A2FF06808770204658
:10B29000BDE8F087200E0020DC1C002038B50546F4
:10B2A0000C4619B9FFF7C0FF044698B140F6354384
:10B2B0009D4209D12046FFF769FC054640B1204672
:10B2C00011F026F8284638BD044821461BF040FFFF
:10B2D0000025F7E76FF06805F4E700BF3C010020A8
:10B2E000F0B5154687B00C4621B9FFF79DFF04461F
:10B2F000002847D00122002168461CF006FF2046A6
:10B3000010F04CFF214F0C2303FB0070C0F808D055
:10B3100020461BF02AFF01461D481BF019FF4FF481
:10B32000A0220023684615F045FC064680B1194A64
:10B3300019491A4840F2471317F046F918483146A0
:10B3400017F042F9404080F311884FF0030002DF0C
:10B35000204610F023FF0C2358433E5C56B1204694
:10B3600010F0D6FF092E14BF6FF004006FF06E00CE
:10B3700007B0F0BD15B12C600020F9E7204610F0B1
:10B38000C7FFF9E76FF06800F2E700BFDC1C0020A0
:10B390003C0100204FA8040083A804008CA80400EE
:10B3A000ADA80400F7B5144B93F99330002B054674
:10B3B0000C461DDA14B9204603B0F0BD082C01AAD2
:10B3C0004FF0000142F21800264628BF0826FFF77A
:10B3D00087FF0028F0D1019FB96832460131284625
:10B3E00018F09AFF384610F093FF3544A41BE1E7AC
:10B3F0006FF08500E0E700BF000000200138C0B218
:10B4000002289ABF014B185C0020704780A90400F5
:10B410002DE9F043B0F801707F4A6FEA07531188B5
:10B420006FEA13539BB2994205464FF0000608BFDE
:10B43000168089B008BF012600F02AFB2C781FFA7D
:10B4400087F8BCB13C2C35D100F004FE6FF0400110
:10B45000103019F042F90020FFF794FD054648B37B
:10B460000473002101F094FA284609B0BDE8F043C6
:10B4700019F08FBE2B79023B012B05F104091CD872
:10B48000494606A819F08BF89DF818300622023BB1
:10B4900005F111010DF111008DF8183018F03CFF85
:10B4A00001238DF81030EB78012B19D01F21404675
:10B4B00019F073FA09B0BDE8F083EB78012B04BFF3
:10B4C000564B93F867404946204619F025FC014643
:10B4D00006A819F064F8494604A819F060F8E2E7F4
:10B4E00006A8FFF74FFDEB78012B04460AD100F0C8
:10B4F000B1FD6FF040018146103019F0EEF848467A
:10B5000019F080FD002CD1D0204606A920F8887BB8
:10B5100019F045F8B5F81730A4F89E30B5F8193091
:10B52000A4F8A430B5F81B30A4F8A630EB78E3708B
:10B5300000222273012B40F20112A4F8B82015D189
:10B5400004A904F18F0019F02AF800F083FD217A94
:10B55000324DC1EBC101294404F1960019F01FF8E6
:10B56000D5F8DC305D0601D500F018FF0721204634
:10B5700001F00EFA1EB10121204601F009FA204621
:10B5800019F043FE637B072B42D1BFF35B8F6368E7
:10B59000224EBFF35B8F13F4006F18D1E3781BB119
:10B5A00096F8D030180712D5022142F21600FFF7A4
:10B5B0003BFE054658B1022108301BF008FE2388E7
:10B5C00003800022294642F21600FFF789FE96F812
:10B5D000D130D90706D50021022300911A46204612
:10B5E00019F014FA96F8D0309A0611D5D6F85431DD
:10B5F0009B689B070CD50DF10E0103A819F09AF971
:10B6000030B9BDF80E20BDF80C10204619F0E0F955
:10B61000204619F0BEFD4DE7B8390020000000209B
:10B6200010B58168174C0B7888B001A88DF80030F0
:10B63000B1F80130ADF80130CB788DF80330B1F8B6
:10B640000B30ADF81730B1F80D30ADF81930B1F856
:10B650000F30ADF81B304B7C8DF81D30043118F0E5
:10B660009EFF214606220DF10B0018F055FE062222
:10B6700021460DF1110018F04FFE6846FFF7C8FE95
:10B6800008B010BDC4A7040029289ABF014B185C5C
:10B690000920704756A904002DE9F041044600F145
:10B6A000080630461BF0CAFDB4F80C80B8F1010F53
:10B6B00005460CD81C4A1D491D4840F66F5316F02C
:10B6C00083FF404080F311884FF0030002DF3046D3
:10B6D00002211BF0A3FD0746007818F035FFC207D2
:10B6E00006460CD4104A1349114840F6735316F01D
:10B6F0006BFF404080F311884FF0030002DF052309
:10B700000D4A3878214618F0D1FFB30707D52369D1
:10B71000A4F80C8013FA85F5A560BDE8F0812046F9
:10B72000BDE8F04110F0F4BD4FA80400CDA804001E
:10B730008CA80400E6A804001C94040070B5037DE6
:10B74000012B044636D0032B63D18389032B0CD8FD
:10B75000324A3349334840F2EB1316F035FF40408C
:10B7600080F311884FF0030002DF042104F1080088
:10B770001BF054FDFF22438806886275A289C6F338
:10B780000B009A42E08203D0204610F0C1FD0FE08A
:10B7900001F0F6F805460028F6D001F0ADF9320BBD
:10B7A00060752146284619F08BFC284619F0F1FCFB
:10B7B000002070BD8389012B0CD8184A18491948FC
:10B7C00040F6591316F000FF404080F311884FF007
:10B7D000030002DF022104F108001BF01FFD0546F3
:10B7E000007818F0B1FE83070CD40C4A0E490D48BE
:10B7F00040F65D1316F0E8FE404080F311884FF0EC
:10B80000030002DF094A28780623214618F04EFF7C
:10B81000BAE710F07DFD6FF01500CAE74FA80400ED
:10B82000CDA804008CA80400FFA8040044940400E0
:10B8300010B5037D012B04460CD0094A09490A487A
:10B8400040F6C55316F0C0FE404080F311884FF01B
:10B85000030002DF2046FFF71FFF002010BD00BFDE
:10B860004FA804002DA904008CA80400084A034630
:10B87000D2F8540130B9D96839B1596929B1C2F83F
:10B88000543170476FF0770070476FF015007047C4
:10B89000000000200148042118F084BECC000020E4
:10B8A00010B5FAF799FD034B1B6813B1BDE81040C2
:10B8B000184710BDF41C002070B5284DD5F8543140
:10B8C00088B00646002B43D06FF0020105F1CC0092
:10B8D00018F003FF012118F065FEC3073BD418F0F0
:10B8E000DAFD044688BB1E4B1E600122114605F599
:10B8F00090701CF00AFC05F59E701CF086FB00227F
:10B900000023CDE906236FF00803CDE90243CDE91A
:10B910000044144B144904944FF44072134814F03B
:10B92000E5FE134911481CF0E3FAD5F85431DB6801
:10B930009847044648B926B908B0BDE87040FAF700
:10B940004BBD05F1BC0015F0ADFA204608B070BD46
:10B950006FF01204F9E76FF07704F6E700000020BB
:10B96000F41C0020E9B00200D0450020181100208E
:10B9700050A90400044BBFF35B8F1868BFF35B8FC3
:10B98000C0F38000704700BFCC0000200048704723
:10B9900083AB0400F8B50B4F06460025FB79ECB2EB
:10B9A000A34202D86FF001000AE0C4EBC4010722F1
:10B9B0003944304618F0A0FC01350028EED120466D
:10B9C000F8BD00BF0000002038B513490622054627
:10B9D00018F092FCD8B1062142F20500FFF724FCD2
:10B9E0000446B0B10622294608301BF0F6FB0022BF
:10B9F000214642F20500FFF773FC48B906220648CB
:10BA0000294618F089FC054B012283F860200020AC
:10BA100038BD6FF06800FBE76100002000000020E7
:10BA200037B504460D46B1B116490722284618F02D
:10BA300063FC80B11448C4EBC4042946204419F0C7
:10BA4000DDF8124819F0DDF8430701D5FFF784F956
:10BA5000002003B030BD684618F068FD0028F8D11A
:10BA60006846FFF797FF0028F5DA074BC4EBC404DC
:10BA70001C446946204619F0C1F8002DE1D021464A
:10BA80002846DCE7B7A7040000000020CC00002017
:10BA90000A4BBFF35B8F53E8002F22F4004143E8C9
:10BAA00000100028F7D1BFF35B8F130404D50449BD
:10BAB0000022022004F0A4B9704700BFCC0000208F
:10BAC000514D0400F7B5474C94F8182194F81931FA
:10BAD00005460AB19A4208D2013384F819312B7A0B
