:020000022000DC
:10600000E89D0020F5D1020095AB0400C9D1020043
:10601000C9D10200C9D10200C9D1020000000000AC
:106020000000000000000000000000002DCF020072
:10603000C9D1020000000000E5CE0200C9D1020073
:10604000A9CF0200BDF00300A9CF0200A9CF020032
:10605000A9CF0200A9CF0200A9CF0200A9CF020058
:10606000A9CF0200A9CF0200A9CF0200A9CF020048
:10607000A9CF0200A9CF0200A9CF0200A9CF020038
:10608000A9CF0200A9CF0200A9CF0200A9CF020028
:10609000A9CF0200A9CF0200A9CF0200A9CF020018
:1060A000A9CF0200A9CF0200A9CF0200A9CF020008
:1060B000A9CF0200A9CF0200A9CF0200A9CF0200F8
:1060C000A9CF0200A9CF0200A9CF0200A9CF0200E8
:1060D000A9CF0200A9CF0200A9CF0200A9CF0200D8
:1060E000A9CF0200A9CF0200A9CF0200A9CF0200C8
:1060F000A9CF0200A9CF0200A9CF0200A9CF0200B8
:1061000053B94AB9002908BF00281CBF4FF0FF311E
:106110004FF0FF3000F00CB8ADF1080C6DE904CE83
:1061200000F008F8DDF804E0DDE9022304B0704770
:10613000704700BF2DE9F04786468C460846089E0A
:10614000154674461946002B40F0C2808542B2FACB
:1061500082F245D94AB1C2F1200300FA02FC2EFABC
:1061600003F3954043EA0C0C94404FEA154EA8B255
:10617000BCFBFEF8230C0EFB18CC08FB00F943EA2D
:106180000C43994528D9EB1808F1FF3704D29945FB
:1061900002D9A8F102072B44A3EB0903A4B2B3FB75
:1061A000FEFC0EFB1C330CFB00F044EA0344A0424F
:1061B00014D92C190CF1FF3304D2A04202D9ACF14E
:1061C00002032C44241A43EA07401EB1D4400023A2
:1061D00034607360BDE8F0874746DDE76346F1E76A
:1061E00092BB431B01214FEA154EAFB2B3FBFEFC3D
:1061F000200C0EFB1C330CFB07F840EA03439845C8
:1062000062D9EB180CF1FF3004D2984502D9ACF1F9
:1062100002002B44A3EB0803A4B2B3FBFEFC0EFB6D
:106220001C330CFB07F744EA0344A7424ED92C1950
:106230000CF1FF3304D2A74202D9ACF102032C4483
:10624000E41B43EA0040C0E7C2F1200320FA03F157
:10625000954090402EFA03F303434FEA154EAFB238
:10626000B1FBFEFC0EFB1C10190C0CFB07F841EAFD
:106270000041884504FA02F422D969180CF1FF3074
:1062800004D2884502D9ACF102002944A1EB0801EF
:106290009BB2B1FBFEFC0EFB1C110CFB07F743EAA3
:1062A00001439F420ED9EB180CF1FF3104D29F42FB
:1062B00002D9ACF102012B44DB1B41EA004192E719
:1062C0006046E3E76146F7E76046A3E76346B7E762
:1062D000834206D916B9002108467BE7C6E900E0EB
:1062E000F9E7B3FA83F78FB9834201D3724508D82F
:1062F000BEEB020460EB030301209C461EB90021A3
:1063000068E73846FAE7C6E9004CF8E7C7F1200C21
:10631000BB4022FA0CF41C432EFA0CF120FA0CF3C9
:10632000B84001434FEA14490EFA07F5B3FBF9F8F8
:106330001FFA84FE09FB18300B0C08FB0EFA43EA27
:1063400000439A4502FA07F240D9E31808F1FF30FA
:1063500004D29A4502D9A8F102002344A3EB0A0310
:1063600089B2B3FBF9F809FB183308FB0EFE41EACA
:1063700003418E452CD9611808F1FF3304D28E45B4
:1063800002D9A8F10203214443EA0040A0FB02988D
:10639000A1EB0E014145CE46434602D306D14D4501
:1063A00004D2B9EB020E68EB04030138002EA6D02C
:1063B000B5EB0E0261EB030101FA0CFC22FA07F3C4
:1063C0004CEA0303F940C6E9003198E74046C5E7C7
:1063D0004346D9E70000000073B5C14DD5F85431EC
:1063E000996811F0010124D101AA40F6034007F099
:1063F00099FD0446002867D1019CA3681B78ABB9BE
:1064000009F018F8BFF35B8FD5F8CC30BFF35B8F82
:1064100005F1CC0203F00903BFF35B8F52E8001FC4
:1064200042E800300028F9D1BFF35B8F20461CF012
:106430000BFA01AA002141F2030007F073FD0446A4
:10644000002841D1019EA748B1680822013124F0FB
:1064500014FD30461CF0F8F9214601AA41F2010072
:1064600007F060FD044678BB019883685A7885F888
:1064700068205A88A5F86A201A7985F86920B3F847
:106480000720A5F86C20B3F80530A5F86E301CF095
:10649000DBF9214601AA41F2020007F043FD044660
:1064A00090B9019E9048B1684022013124F0E5FC8A
:1064B0008D4824F069FD30461CF0C6F995F874301B
:1064C0005A0604D46FF01204204602B070BD214673
:1064D00001AA42F2030007F025FD04460028F3D18B
:1064E000019E8248B1680822013124F0C6FC304682
:1064F0001CF0AAF9214601AA42F2020007F012FD9F
:1065000004460028E0D1019CA368B3F80120A5F857
:10651000FC2091B221B1DA787548114629F0ACFC23
:1065200020461CF091F995F8746016F0200618D1F9
:10653000022140F66D4007F099FC0446002800F067
:10654000CC800221083028F035FC0123037046700E
:106550002146324640F66D4007F0E4FC0446002830
:10656000B2D195F894301B0712D501AA002142F24E
:106570001C0007F0D7FC04460028A5D101988368C9
:10658000D3F80120D3F80530C5E936231CF05CF9B7
:1065900095F8D0309E0624D50DF10201684624F00E
:1065A00091FF044600288FD1042142F2240007F015
:1065B0005DFC0646002800F090800421083028F099
:1065C000F9FBBDF800300380BDF80230438022465D
:1065D000314642F2240007F0A5FC044600287FF46F
:1065E00073AF95F8D0305C0610D501AA002142F2B5
:1065F0002A0007F097FC044600287FF465AF019855
:1066000083685B7885F818311CF01EF9082142F286
:10661000010007F02BFC044600285ED00821084446
:1066200028F0C8FB95F8D01011F0400F024640F258
:10663000022308BF032388074CBF43F02C0043F01C
:106640000C008B0695F8D13048BF40F0400013F0A5
:10665000090F95F89A3018BF40F4006003F0060364
:10666000CE0748BF40F01000062B08BF40F4C070B2
:10667000002124F007FE2146002242F2010007F02B
:1066800051FC044600287FF41FAF95F87430B5F82C
:10669000FC1098062ED4C9B901AA41F2050007F0F2
:1066A00041FC044600287FF40FAFB5F8FC30019C94
:1066B0004BB9A368B3F80120A5F8FC209A880C48D0
:1066C000114629F0D9FB20461CF0BEF8082140F6FF
:1066D000014007F0CBFB044688B96FF06804F3E68D
:1066E00030000020A0000020A800002000010020B1
:1066F000300100200029E9D16FF00404E4E608210C
:10670000084428F057FB95F8D030D907024657D4F3
:106710002F484FF0005124F0B5FD2146002240F6ED
:10672000014007F0FFFB044600287FF4CDAE014690
:1067300001AA4FF6014007F0F5FB044648BB01985B
:106740001CF082F8214601AA4FF6024007F0EAFB4E
:106750000446F0B9019E1F48B1680222013124F0BD
:106760008CFB30461CF070F895F8B9305B0710D5FB
:1067700001AA21464FF6034007F0D4FB48B9019C1B
:106780001548A1680122114424F077FB20461CF033
:106790005BF825F0E2F8044600287FF495AE09F096
:1067A000EFFF044600287FF48FAEEB79002B3FF417
:1067B0008BAE0821094824F0A6FC07F077FF83E69A
:1067C00001A1D1E90001A6E7908800020080002025
:1067D00010880002E9000020E8000020FC000020F2
:1067E0002DE9F843D0E90B35D0F828805C19303416
:1067F000A0450F46164619D81D4DA3FB05011AA347
:10680000D3E90023FFF77CFC0346A4EB0800A0FBC0
:10681000050123F07F4414A3D3E90023FFF770FCA4
:1068200020F07F403C603060BDE8F883DFF84090A6
:106830000DA3D3E90023A8FB0901FFF761FC04467F
:1068400005F1300008A3D3E90023A0FB0901FFF7FD
:1068500057FC24F07F4420F07F403C603060BDE86E
:10686000F88300BFAFF300808D49FD1A07000000D8
:1068700000CA9A3B00000000002800F0BC812DE90E
:10688000F04F264D95F86A30D9078FB000F1ED81B1
:1068900095F8292095F8353005EB820205EB830346
:1068A000D76AD3F8388077B33E4616F8020BC0F3A8
:1068B00080100FF0D3F906220146044605F16B0063
:1068C00024F0DBFA06222146304624F0D6FA3B7843
:1068D0005A0606D5062130460DF03AFE002800F093
:1068E000C681464616F8020BC0F380100FF0B6F9C9
:1068F0000622014604460A4824F0BFFA21463046E3
:10690000062224F0BAFA3B7813F00E0F40F00C8107
:106910002B6A3BB10C200FB0BDE8F08F7451002002
:10692000DF51002011F016FA8146002800F0AC81FA
:1069300011F01CFA8246002800F0A38113F0BAFB84
:106940000446002800F0A2814FF6FF73406F2385B4
:1069500004F11C030B93002800F08F8104F16802FE
:1069600004F164010DF000FEB4F8603094F87A2070
:10697000DFF834B323F4EF6323F0070343F48873A1
:1069800043F00103A4F8603094F8393022F0070294
:10699000594684F87A2003F03F0394F83C2063F0D2
:1069A0007F0384F8393022F0070211F8013B84F8A4
:1069B0003C2094F8D62003F0010363F300020B930C
:1069C000BA4B84F8D620002606224FF01B10C4E9EB
:1069D0001603A4F8C020C4E912666667A4F87860BC
:1069E0006686C4F82E6084F83B602665A4F8C4600F
:1069F000A4F8C860A4F8D060A4F8CC6004F1D70073
:106A000024F03BFA94F8D6000B9B63F34100062276
:106A10000BF1010184F8D60004F1DD0024F02DFA19
:106A200094F8E43084F8F26023F0070384F8E4304B
:106A300094F81A31A4F8F06066F3041384F81A315C
:106A4000C4F81461A4F81861A4F8306110F0C2FC15
:106A500094F84A31A4F8486123F0030384F84A31DA
:106A600094F87A30A4F8506123F0180384F87A304F
:106A700094F8763184F8536123F0070384F8763173
:106A800094F89631C4F8549166F3861384F89631DD
:106A900094F8C631A4F8746166F3C303002284F845
:106AA000C6310023C4E94E01C4E9502384F8E560EF
:106AB000A4F89461A4F8A661C4F8EC60A4F8C461D9
:106AC000A4F8D06113F05EFEA4F8D20013F060FECB
:106AD000D4F8D421764BA4F8D4001340C4F8D431B0
:106AE00013F05CFE94F8D83160F3020384F8D831D7
:106AF00013F05AFE04F11C032B6294F8D831C4F849
:106B0000DC6160F3C503C5E9189AC4E97A66C4E993
:106B10007866C4E905662670E46184F8D83119F016
:106B200043F8002840F0A58095F824300121C3F3F4
:106B300042030DF133008DF833300DF09FFE024615
:106B400000285AD098F80110384612F043F85949F5
:106B5000B5F8686000243123AB60C5E9054450A353
:106B6000D3E900232C706C60EC60A0FB0101FFF7FF
:106B7000C7FA28610FF042F880463EB93C7804F02D
:106B80000F04A4F10104B4FA84F4640995F8240014
:106B90002B6964F3000010F0010485F8240033D061
:106BA0000020454A454F049302240DAE01930592FF
:106BB0000321CDE902000896069543460090079709
:106BC00022460D940EF0EEFE314611F07BF9A0B98D
:106BD0003B4905914AF2D8330093CDE90300CDE952
:106BE00001000797089606954346012203210D945C
:106BF0000EF0D8FE2EE011F03FBF2B6A002B3FF4C1
:106C000089AE11F0F7FE85E62E4A2F48049303F271
:106C100047130695029491211360A6FB000301FB24
:106C20000631264B0793244B05934FF6FF730992C9
:106C3000022703930DAE1AA3D3E900230D970896FC
:106C4000FFF75EFA4346CDE900403A46204603216D
:106C50000EF052FE314611F035F90028CDD195F8ED
:106C60006A3043F0010385F86A30002053E61220B1
:106C700051E611F0BFFE03204DE604F16C006067A1
:106C80006CE6484611F06CF8072044E6504611F0D7
:106C900073F8484611F064F8F6E700BFAFF30080E0
:106CA0008D49FD1A07000000103505004801480114
:106CB0000000FFF600CA9A3B458C0300A174030054
:106CC0009587030068510020002AE7840000000037
:106CD00070B590F824308AB0C3F342030D460446E1
:106CE00001210DF1230016468DF823300DF0C6FD6D
:106CF00071780246284611F06DFF1D491AA3D3E9A9
:106D00000023A0FB0101FFF7FBF923699842054628
:106D100021D21B1A00220192164A0293164BA21A84
:106D2000A3FB02320221920900230A4409AE099111
:106D300012490591CDE903330321D2B2069600939F
:106D400018460EF0A3FE314611F0BCF838B92561A3
:106D500000200AB070BDFBD9C21A0023DBE70C206B
:106D60000AB070BDAFF300808D49FD1A0700000026
:106D700000CA9A3B7451002009CB3D8DA1740300D9
:106D800038B5194C9DF810E094F840C01CF001058E
:106D900022D163F3420C400194F8323061874FEA0C
:106DA000CE0E0EF0180E00F0200040EA0E0023F088
:106DB000380303430D4884F832309121A2FB0003CD
:106DC00084F840C001FB023105A3D3E90023FFF79B
:106DD00097F9E063284638BD0C25284638BD00BF2A
:106DE0008D49FD1A0700000000520020002AE784A8
:106DF00010B504469DF80800E2834FEA411CC0002C
:106E0000A17D00F018000CF0200C4CEA000C0C489E
:106E100021F038014CEA010CA3FB0002912101FB97
:106E2000032184F816C004A3D3E90023FFF768F90F
:106E3000206210BDAFF300808D49FD1A07000000ED
:106E4000002AE784000000002DE9F043044600F129
:106E5000340190F8400094F83230C0F3400060F301
:106E600086138DB084F832300EF008FF94F832208B
:106E7000638F4748E46102F07902002584F83220EC
:106E80009121A3FB0002C4E90555257001FB0321F4
:106E90003DA3D3E90023FFF733F93123A360E36B6C
:106EA000656018339842E56098BFE563394D3A4A0A
:106EB00098BF03462361651BA2FB052506460EF01D
:106EC0009DFE236AC5F387150746002B40D00DF1C0
:106ED0002C08CDF820800694638F2D4A4FF00009CE
:106EE000A3FB0202CDF80C90912101FB0321236941
:106EF00004932A4B07932A4B059302230B9322A357
:106F0000D3E90023FFF7FCF8104619464FF47A72D4
:106F10000023FFF7F5F80435EDB2CDE90160032158
:106F20003B462A46CDF8009048460EF03BFD4146D0
:106F300010F0C8FF40B994F8403043F0010384F8E2
:106F400040300DB0BDE8F0830C200DB0BDE8F083FB
:106F50000DF12C08CDE90A33216943460AAA032022
:106F600001F0DEF90028B4D10B990E4806A3D3E94D
:106F70000023A1FB0001FFF7C3F80A9B20F07F4725
:106F80001F44A6E7AFF300808D49FD1A07000000FB
:106F9000002AE78400520020F1F0F0F0A174030011
:106FA0007D91030000CA9A3B2DE9F04FC38D458EB9
:106FB000B0F8F4601D4490F81A31ADB22944174678
:106FC00013F007028BB0044689B20AD0013A042AB2
:106FD00000F27E83DFE812F072010902040252021D
:106FE0000C02891B1FFA81F8090400F1D38190F982
:106FF0003930002BC0F28C8294F8F03084F8F130F4
:1070000094F8942194F8953194F8181184F8191192
:10701000934206D094F8963103F00F03062B00F04C
:10702000D182994BD4F814911A68944204BF00227B
:107030001A60B9F1000F00F0C381D9F80030002BBD
:1070400000F0BE815B68628DC4F81431B4F81C3165
:10705000934205D1B4F81E11A28D914200F03A82FC
:10706000238DA9F80630192389F80430002389F804
:107070001C30B4F81C31A9F81E30B4F81E31A9F840
:107080002030B4F82031D9F80000A9F82230494660
:1070900010F078FE10F080FEA368002B09DAE1689A
:1070A000626823F0004391422CBF7F18BF18A36091
:1070B000FF1A618DB4F81C9111FB08F189B2B1FB84
:1070C000F9F319FB03F080B281421FFA83FA80F0D2
:1070D0006681401A40F2E2426C4902FB00F0A0FBDC
:1070E000010167A3D3E90023FFF70AF820F07F40EE
:1070F0000744E38D1E4494F93930761B564440F220
:10710000E24B002BE6850BFB09F6C0F20F82D4F8A8
:1071100024115E485AA3D3E90023A1FB0001FEF726
:10712000EFFF20F07F48354608F10108584AB4F8CF
:107130002031B4F81E015749A4F82A903244B2FB1A
:10714000F6F2A4F8C62042F2107202FB0363314447
:10715000013BB1FBF6F1B3FBF6F38AB2A4F8C230FF
:10716000831D9A42A085A4F8CE2004DDC0F57F439C
:10717000FA331A4492B294F81A31A4F8CA201B07C1
:1071800044BF0023A4F8C430022101201BF0E2F820
:1071900000220221824601200DF036FA3E494FF4CA
:1071A000FC7220460DF0C0F900F105095FFA89F97B
:1071B0003A4B00944A46012100200EF07FFC30F04B
:1071C00002030CD0364A3749374840F6AF5321F016
:1071D00059FF404080F311884FF0030002DF2B4E2F
:1071E000A5FB066B26A3D3E9002330465946FEF7DC
:1071F00087FF2E4B20F07F45A5FB03310722F01AB5
:1072000002FB05116BEB01014FF47A720023FEF7CC
:1072100077FFCDE9015008940694CDF800802169EC
:1072200094F93950224804912249234C079431EAB9
:10723000250128BF014605914FF6FE713B4603919B
:107240004A46012100200EF0ADFB30F002030CD0C5
:10725000134A1449144840F6C95321F013FF404023
:1072600080F311884FF0030002DFBAF1000F40F005
:10727000578100200BB0BDE8F08F00BFAFF3008056
:107280008D49FD1A07000000F058002000CA9A3B03
:10729000FF5962027FC3C901E8280020FD9703005F
:1072A0009C2605007C2705004C2105008D49FD1A10
:1072B000EDE40300D9E60300A5970300DFF8288377
:1072C000012010F06FFD0646002800F0D981C74864
:1072D0000DF0F2F80546002800F0D281C44B1A6880
:1072E000002A00F0788110F07FFD3368D4F8142173
:1072F0005A60C4F814612B79BE4A43F003032B7122
:107300000C236B710023EB7194F828312B72D4F8A5
:107310002431A2FB03239B0AA5F80930B4F81C31E1
:10732000A5F80B30B4F81E31A5F80D30B4F82031B3
:10733000A5F80F3094F81A31C4F8FC70032262F3F8
:10734000020384F81A31A368002B0ADAE168626844
:1073500023F0004391422CBF7F18BF18FF1AC4F8D6
:10736000FC70A54B01220935C4F8F85002211046E3
:10737000C3E902480DF07CF960B1A04AA049A148D8
:1073800040F63D4321F07EFE404080F311884FF0EF
:10739000030002DF6FF076000BB0BDE8F08F09FB51
:1073A0001311994840F2E24389B203FB01F1A1FBBA
:1073B00000018BA3D3E90023FEF7A2FE3F1A98E653
:1073C0008E4A92498F4840F6FA4321F05BFE4040D6
:1073D00080F311884FF0030002DFD9F8003031E666
:1073E0006FF00F000BB0BDE8F08FDFF8248267E785
:1073F000B4F8A61194F8F00094F8182184F8F1007C
:1074000084F81921002940F0078194F8942184F828
:1074100095217749D4F8F820D4F8DC0100250D60D7
:10742000D4F8E051A2F10901002800F02181DB0627
:1074300000F11E8194F876319F0700F1198194F8CC
:10744000D731DE0700F11481D4F8E831984200F01A
:107450002281002D00F02E81D4F8E4311B6842F81F
:10746000093CD4F8E4311960C4F8E41152F8093C3D
:10747000002B00F008816FF08B00FBE6A38DD4F8A1
:10748000F8200633194489B2A4F8F410118194F855
:107490001A31D4F8E011D4F8DC0123F0170343F0DB
:1074A000100384F81A31A2F10903002900F0EE80DC
:1074B000D4F8E411096842F8091CD4F8E4110B600F
:1074C000C4F8E43152F8092C002A7FF463AFC4F801
:1074D000EC315FE740F2E241B4F8202101FB03F315
:1074E00042F2107101FB0232013AB2FBF3F3B4F83D
:1074F000C2209BB29A427FF4B3AD0123D9F80000B9
:1075000089F80430494610F03DFC10F045FCC3E515
:1075100090F8E530002B3FF46FAD80F8E5206FE583
:107520000122022110460DF06FF8A2E6226CA36C36
:1075300002FB1833A36418F089FB054694F8E400B5
:10754000DFF8C480C0F3C20018F082FB054406FBDC
:1075500005F5304B94F8282105F5742505F23F25F3
:10756000A3FB0535AD0CA36C25640BFB02F205FBF8
:107570000AF0226572080344963A934228BF1346E4
:10758000C4E911230023A0FB0801C4F8EC3014A3C4
:10759000D3E90023FEF7B4FD164B3F1AD4F82401BB
:1075A000A3FB0030800A0BFB00F0A0FB08010CA33A
:1075B000D3E90023FEF7A4FD751BB4F81C9120F05D
:1075C0007F48B3E5B4F8A631E3BB84F895210023E6
:1075D000A4F8C83025E51C6085E600BFAFF3008045
:1075E0008D49FD1A0700000069EE03008453002056
:1075F000F05800205917B7D1BC0A00209C2605007E
:10760000582405004C21050000CA9A3B6827050054
:107610007983020083DE1B43B4F89621D4F8A001DD
:10762000C4F8980102F0C002B4F8A401A4F89C01C7
:1076300042F010020020A4F89E11A4F89621A4F8AC
:10764000A601E6E6A4F89E31B4F8963103F0C00333
:1076500043F01003A4F89631D4F8A031C4F898315F
:10766000B4F8A431A4F89C310023A4F8A631AEE705
:10767000002D7FF4F1AE42F8090CC4E97711F3E66E
:107680006FF06800F6E5C4F8EC11F4E642F8090C76
:10769000C4E9773314E70368C4F8E831002D7FF4B8
:1076A000DBAE036842F8093CD4F8DC311960C4F859
:1076B000E011D9E6037903F00303032B02D0C4E9F8
:1076C0007800C9E6C379032BEBD00A2BF7D1E8E7A2
:1076D000074A0849084840F69A4321F0D3FC404045
:1076E00080F311884FF0030002DF4FF00008E7E558
:1076F0009C260500AC2105004C210500000000007F
:107700002DE9F04F0B681468D3F80090037F93B015
:10771000C3F3801B05460F46164600F11E010622E4
:1077200010A8CDF82CB023F0A8FB10A906220EA8B3
:1077300023F0A3FB95F81C80D5F800C0CDF828C035
:107740004FEAD81809F16B0A0EAB5A46514640462B
:1077500013F030F800284CD194F8D6200C906BF33D
:10776000410284F8D6200EA9062204F1DD0023F0A0
:1077700084FB94F8D62068F30002514684F8D620A2
:1077800004F1D700062223F078FB06F10408032257
:1077900005F12E0106F1080023F06FFB06F1180A2F
:1077A000042205F12A01404623F067FB052205F17A
:1077B0003A01504623F061FB052150460DF05EF87A
:1077C000727F00F03F0060F30502727795F83F206A
:1077D000C2F30401B177A98EF181012802F01F02E2
:1077E00089B206D91B3202F01F020B2A01D80C9B6A
:1077F000C9B90022C9F8142096F820300A9862F31B
:10780000000386F82030EC68012629462E7110F01E
:10781000B9FA20682671214610F0B4FA10F0BCFACB
:1078200013B0BDE8F08F3A685360EB8E338295F861
:107830003F3094F8E420B6F80EA05B0963F3C5026C
:107840006B8E84F8E42040F2E24202FB0AFA0D93C8
:1078500018F0FCF9834694F8E400C0F3C20018F075
:10786000F7F90BEB00030AFB03F3AF4903F57423AD
:1078700003F23F23A1FB03139B0C73624FEA5A03ED
:10788000963BB36295F8313040F2E24202FB03F3DB
:10789000B363B5F838B0A54AA54B42F21071524413
:1078A000B2FBFAF2A4F8C6201FFA8BF201FB02A287
:1078B0005344013AB3FBFAF3B2FBFAF2A4F8C22044
:1078C0009AB2A4F8CE20318A881D824204DDC1F527
:1078D0007F41FA310A4492B2A4F8CA2041460422F8
:1078E00004F1E80023F0C9FA2B4613F81C2FC2F369
:1078F00040120C92DA0700F1DD809DF82C30AB7756
:107900004FF4807306220EA9AB8305F11F0023F00C
:10791000B4FAF389EB84338A2B85A5F82AB094F85E
:10792000E430C3F3C20385F82C30204612F0CEFBBE
:10793000B081E88029460A987D6810F023FAB3895F
:107940000C9AEB801C232B712B68002A40F0C78017
:10795000DDF830B085F81CB01846294610F012FA50
:1079600010F01AFA96F84500B6F84080B6F8425082
:10797000012100F0070017F07BFF454405F5617514
:10798000291883466B484FF000083123A360A1FB00
:10799000000163A3D3E90023C4F80480C4F80C8079
:1079A000FEF7AEFB20F07F4020610D99FB68756A01
:1079B00040F2E24202FB013303F2B243A3EB0B03BA
:1079C0004246022101200A930CF01EFE484611F0A7
:1079D000E9FA821C584BCDF80090D2B24046012102
:1079E0000EF06CF80128AAEB050500F0858099F8E7
:1079F0002430DB076BD4204612F068FBDFF83491AB
:107A0000A5FB098546A3D3E90023824629464046C3
:107A1000FEF776FBBB68494A07920AF10507A3F116
:107A2000490A474B069420F07F46A6FB0331B8EB8A
:107A30000300444B05934FF4EB73089323694FF015
:107A4000000BCDE903B34FF0070303FB061165EB11
:107A500001014FF47A720023FEF752FB0A9BCDE935
:107A60000160A3FB09012EA3D3E90023FEF748FB25
:107A7000FFB220F07F40009053463A46012158461D
:107A80000DF090FF30F002030CD02F4A2F49304800
:107A900040F2D71321F0F6FA404080F311884FF0FE
:107AA000030002DF0122022110460CF0ADFD13B0ED
:107AB000BDE8F08F244A27492548FF2321F0E2FA48
:107AC000404080F311884FF0030002DF15E70023E8
:107AD00001220093184611460DF0F0FF8BE7727FEC
:107AE0000A9342F040024046727717F073FA4FF063
:107AF000010B0A9BF0832DE710F024FA81453FF437
:107B000076AF114A1449124840F2A12321F0BAFA83
:107B1000404080F311884FF0030002DF67E700BFA9
:107B20008D49FD1A0700000083DE1B43FF596202E6
:107B30007FC3C90100CA9A3BB1E4030081E403009A
:107B40008D49FD1AEDE40300B42805007C270500EB
:107B50004C210500602205001029050000000000EE
:107B60002DE9F04F8BB0CDE9040100209DF8549031
:107B7000BDF858A0BDF85CB0BDF8607006921E4616
:107B800011F0DAFB002800F0A78109F00104054696
:107B900020460EF063F80390002C56D1149B0399F5
:107BA0002046324612F006FE002840F099812B6AEA
:107BB00005F11C020792002B4ED0D5F82080D8F892
:107BC000004006F0010698F84400C0F3C00100F040
:107BD000070017F04BFEB8F84010B8F8423000F537
:107BE00061700144D8481944A1FB0001D4A3D3E932
:107BF0000023FEF785FA20F07F40206195F84030A1
:107C0000149969F3420385F8403095F8333066F3F0
:107C1000000385F83330062205F1240023F02DF906
:107C200006992F86DDE9042305F11C00009100214F
:107C3000FFF7DEF817F0B8FF002840F0558128461E
:107C4000FFF702F90BB0BDE8F08F06210CF080FCC5
:107C50000028A3D11220F5E710F07CF80790002847
:107C600000F0B48112F026FA0446002800F0AB813F
:107C700020300CF017FE04F11C08002840F076813B
:107C8000032104F1240017F0A7FC606FA4F82CB0C6
:107C90004FF6FF73A4F82AA02385002800F0738113
:107CA00004F1640104F168020CF05EFCB4F8603089
:107CB000A64A23F4EF6323F0070343F4887343F0E9
:107CC0000103A4F8603094F87A3023F007034FF0F2
:107CD000000B84F87A304FF01B13C4E91632C4F855
:107CE00074B0A4F878B0C4F82EB0A4F832B004F19F
:107CF000340017F01BF994F8393060F305030121C3
:107D000084F839300DF1270017F066FC9DF8272024
:107D10008F4BA08D84F83BB0A3FB0213DB0803EB71
:107D20004303A2EB830294F839308A49A4F8C4B023
:107D300003F03F03053284F8393094F83C3084F87E
:107D40003A2040F2E24202FB0AF223F0030311441C
:107D500084F83C30B1FBF2F17F4BA4F8C61042F23C
:107D6000107101FB072113440139B3FBF2F3B1FB9E
:107D7000F2F2A4F8C2200622A4F8C020811D9AB213
:107D80008A42A4F8C8B0A4F8D0B0A4F8CCB0A4F843
:107D9000CE2002DD063A121A92B294F8E430A4F82A
:107DA000CA2023F0070384F8E43094F81A314FF026
:107DB000000A6AF3041384F81A3184F8F2A0A4F8D4
:107DC000F0A0C4F814A1A4F818A1A4F830A10FF0F1
:107DD00001FB079BC4F8543194F84A31A4F848A138
:107DE00023F0030384F84A3194F87A30A4F850A1C0
:107DF00023F0180384F87A3094F8763184F853A18C
:107E000023F0070384F8763194F89631A4F874A12E
:107E10006AF3861384F8963194F8C631A4F894A1D5
:107E20006AF3C303002284F8C6310023C4E94E017B
:107E3000C4E95023A4F8A6A1A4F8C4A1A4F8D0A131
:107E400012F0A0FCA4F8D20012F0A2FCD4F8D421C5
:107E5000424BA4F8D4001340C4F8D43112F09EFC75
:107E600094F8D83160F3020384F8D83112F09CFC06
:107E700094F8D8311499C4F8DCA160F3C50384F8F0
:107E8000D83194F8D630C4F804A006F0010666F3A1
:107E9000410384F8D6303123A3600622C4E97AAACC
:107EA000C4E978AAC4F80CA004F1DD0022F0E5FFD3
:107EB00094F8D630039969F3000384F8D63006228B
:107EC00004F1D70022F0D9FFC5F82080C4E905AA43
:107ED00084F800A0E46176E60C200BB0BDE8F08FDA
:107EE0000B200BB0BDE8F08F2C6AA36D63B11C4A68
:107EF0001C491D4840F2D44321F0C4F8404080F3AF
:107F000011884FF0030002DF04F14C0104F1480036
:107F10000CF02EFB0646002839D02768A665D7F856
:107F20005441002C41D020460FF01AFF384612F081
:107F3000C7F8002303202B620BB0BDE8F08F00BF11
:107F40008D49FD1A0700000000CA9A3B480148010C
:107F5000ABAAAAAAFF5962027FC3C9010000FFF6BB
:107F600040290500902505004C210500184A1949B3
:107F70001948C42321F086F8404080F311884FF05F
:107F8000030002DF7CE604F16C00606788E6104ABB
:107F90001249114840F2D64321F074F8404080F372
:107FA00011884FF0030002DFB7E7094A0B490A487E
:107FB00040F2DD4321F066F8404080F311884FF035
:107FC000030002DFAFE707980FF0CAFE072039E68B
:107FD00040290500302305004C210500F42605004A
:107FE0002DE9F04781468CB0044619F81C6F88468D
:107FF000154600F1240106220AA822F03EFF277F41
:1080000019F0010FC6F3C016C7F3401740F0CB803C
:1080100000230AA90622A677A38304F11F0022F0F9
:108020002CFFD8F80030D3F80090EB89E3842B8A3A
:108030002385B9F83030638517F006FE84F82C00EC
:108040002E68304612F042F8A881E080D8F804A0EB
:10805000206821460FF096FEAB89AAF806301C2353
:10806000DAF800408AF80430002F40F0AA80514628
:1080700020468AF81C700FF085FE0FF08DFEB26866
:10808000736895F84400EF89D8F80C409A4238BFDD
:108090001A46C0F3C00140F2E24300F0070003FBC0
:1080A00007F7924617F0E2FB203400220221241A3F
:1080B00001200CF0A9FA484611F016F9021D484BB0
:1080C000CDF80090D2B2012100200DF0F7FC30F085
:1080D00002030CD0434A4449444840F2E53320F0BF
:1080E000D1FF404080F311884FF0030002DF4FF0D2
:1080F00000094B4603220121CDF8009048460DF0BF
:10810000DDFC304611F0E2FFD8F80830A3F1180882
:10811000A8EB0A08DFF8D8A005462FA3D3E900236F
:10812000A7FB0A01FDF7ECFF1946324B0793324BD0
:10813000059340F215430696089333690746CDE947
:108140000393104600234FF47A72FDF7D9FF22A360
:10815000D3E90023CDE90170A4FB0A01FDF7D0FFAC
:10816000053520F07F40EDB2009043462A460121BC
:1081700048460DF017FC30F002030CD0194A1A499A
:108180001A4840F2164320F07DFF404080F31188EA
:108190004FF0030002DF0122022110460CF034FAF6
:1081A0000CB0BDE8F0870F4A144910484FF45973DA
:1081B00020F068FF404080F311884FF0030002DF99
:1081C00026E76B7F43F040036B77281D16F002FF14
:1081D0000127E8834BE700BF8D49FD1A0700000027
:1081E000A5E60300402905007C2705004C21050079
:1081F00000CA9A3BA9E60300D9E603006022050005
:10820000053838B5C3B2052B20D880B20D4611F021
:1082100065FF0446D0B190F93930002B16DB90F899
:108220006000C0F3C00100F0070017F01FFB0A490F
:1082300000F2146006A3D3E90023A0FB0101FDF7BF
:108240005FFF20F07F402860204638BD002038BD09
:108250008D49FD1A0700000000CA9A3B000000008B
:108260002DE9F04186B005AC0094039216461D46F8
:10827000044604AB03AA022016F056FDFF2830D0B6
:10828000DDE90413244F0B44A3FB07014FF007085B
:1082900008FB03111EA3D3E90023FDF731FF803053
:1082A00028600398831B1B021ED431460DF0A8FCE6
:1082B0000146A0FB070716A3D3E9002308FB0171C1
:1082C000FDF71EFF2A680244002A2A6009DB40F2FB
:1082D000E24303FB04F0904203D2121A8242FCD81C
:1082E0002A6006B0BDE8F081014630460DF088FCFA
:1082F0000146A0FB070706A3D3E9002308FB017191
:10830000FDF7FEFE2A68121ADEE700BFAFF3008019
:1083100000CA9A3B000000008D49FD1A00000000D1
:1083200010B584B003AC9C46009402AB644616F0D2
:10833000FBFCFF2812D0DDE902230D481A44A2FB02
:108340000003072101FB023107A3D3E90023FDF756
:10835000D7FE80302060002004B010BD6FF009000F
:10836000FAE700BFAFF3008000CA9A3B00000000AC
:108370008D49FD1A000000002DE9F043B0F8AC1162
:1083800089B0044640F2E2433D48002603FB01F178
:1083900005AD0623C5E901668DF80F30A1FB00018C
:1083A00035A3D3E900230596FDF7AAFE0DF10F03CF
:1083B000019500930490B4F89A31204604AA012153
:1083C00016F05EFB9DF80F00B046374604F5D679EF
:1083D0004FF6FF76B9F800C078B12A460023B445BD
:1083E00003F1010104D0B2F800E0E6451BD00127FB
:1083F000CBB2834202F10202F1D108F10108B8F1D7
:10840000060F09F10209E5D1D4F8F83027BBBDF811
:10841000142040F2E24102FB01F1100AC4F82411D9
:108420001A7058700EE08342E7D2D4F8F82040F278
:10843000E24303FB0CF34FEA1C21C4F8243182F819
:1084400000C05170042294F81A3162F3020384F8D8
:108450001A3109B0BDE8F08313F8052C032002435C
:1084600040F6117103F8052C20221A7003F8040C51
:1084700023F8021C0522E6E78D49FD1A07000000DB
:1084800000CA9A3B0000000038B5044618F0B2F963
:10849000A37DA27DC3F34103013303F00303032B48
:1084A00008BF002363F3420214BF03F12500252017
:1084B000A27517F099F963680BB123694BB90DF0F8
:1084C0009DFBC11C002019F0F5FDBDE8384019F0F6
:1084D0006FBE19F021FE05460DF090FBC11C002077
:1084E00019F0E8FD19F064FE19F016FE29460DF0AA
:1084F00087FB0B4A03460721A0FB020201FB032175
:1085000005A3D3E90023FDF7FBFD23691B1A2361B3
:1085100038BD00BFAFF3008000CA9A3B00000000E6
:108520008D49FD1A00000000F0B587B0044619F02F
:10853000F5FBC0B250B917F0AFF9C348214619F0A6
:10854000D1FA07B0BDE8F04019F0BEBB19F006FC47
:10855000054619F001FD074619F008FD19F0E0FC89
:10856000EDB2064619F0C2FC17F096F9002DE4D0E2
:1085700001200FF08BFD0546002800F0EE80A37D62
:10858000C3F3C0001B0700F199802B7F6168F6B22E
:1085900003F00F02002900F0AA80616891F8201012
:1085A0008F0700F1A480072AC7D0002800F08B8035
:1085B000002A40F09D816B7F252BBED804200FF050
:1085C00065FD0028B9D019F0FBFD236A064643B9C2
:1085D000E38B40F2712202FB03F3B0FBF3F203FBE7
:1085E00012062268994B12690721A2FB030301FBC3
:1085F000023193A3D3E90023FDF782FDA0F20453D7
:10860000B3429AD319F064FCA67D636819F0B4FBF9
:108610002B7F05A905F11E020391C6F3801604F114
:1086200018010746C3F3801300920291002201460D
:108630000196204618F0A2FA384619F023FB19F0EB
:1086400063FB002840F08A812146814819F04AFAEC
:10865000626892F8203043F0010382F82030A37D55
:1086600043F08003A3750FF033FD172303714FF61A
:10867000FF730646C380242239462D7F1C3022F02A
:10868000FCFB337FB460C5F3401565F345133377C6
:1086900019F042FD002130610120059C19F002FB18
:1086A000241A74610FF014FD3146F06030680FF049
:1086B00025FD07B0BDE8F0400FF030BDFFB2002F40
:1086C0003FF43BAF61E7E17DC3F3801001F00101AE
:1086D00088420CD1062205F11E0104F1080022F0A7
:1086E000BCFB2B7F03F00F0200283FF461AF002A90
:1086F00040F0B8806A7F252A13463FF61EAFA17D61
:1087000001F02101202936D00027002B3FF415AFBE
:1087100063682BB12B7F03F00F03072B7FF40DAFA2
:1087200003200FF0B3FC054600283FF406AF0FF01E
:10873000CFFC4FF6FF73EB8005232B71002E7BD10E
:108740007F206B7E287667F3000328686B762946C6
:108750000FF0D4FC0FF0E2FCEFE63E4A3E493F4802
:1087600040F2D22320F08EFC404080F311884FF07D
:10877000030002DF03E76768002F40F0D7809620F0
:1087800019F00AFC384619F0FBFA03200FF07EFCC2
:10879000074600283FF4D1AE0FF09AFC4FF6FF7366
:1087A000FB8005233B71002E40F0CE807F237A7E34
:1087B0003B766FF300027A76394638680FF09EFCFC
:1087C0000FF0ACFC19F0D8FA0378032262F303032C
:1087D00003702B7F0278C3F3801363F3C7120C235B
:1087E00002704370A37DD2B2C3F3801363F3861289
:1087F000064604F1180100F8022B062222F03DFB88
:10880000062205F11E0106F1080022F036FB304673
:1088100019F038FA19F078FA002840F0B08019F011
:10882000C7FCA37D0E4843F001032146A37507B0A2
:10883000BDE8F04019F056B919F064FBC0B280E70A
:1088400000CA9A3B000000008D0804008D49FD1A03
:10885000550A0400E02B0500942B05004C2105006F
:10886000A1080400062A3FF445AF4521D140C907BD
:1088700000F1A380012A18D16A7F0C2A7FF45DAE33
:10888000A27DC2F38011B1EBD31F4FEAD31750D0B2
:10889000C2F3C102012A7FF650AE2FB195F82930FC
:1088A00003F0C003402B67D02B7F03F00F03042B92
:1088B0007FF443AE6B7F252B3FF63FAEA37DDB07F6
:1088C0007FF53BAE19F058FA2B7F0278C3F3801383
:1088D000B3EBD21F7FF431AE0622083005F11E0142
:1088E00022F0BBFA074600287FF427AE6B7F0CE727
:1088F000012AB7D16A7F0C2A7FF41FAEA27DC2F392
:108900008011B1EBD31F4FEAD31746D0C2F3C10297
:10891000012AB5D937B195F8293003F0C003402BAF
:108920003FF44CAE2B7F03F00F02E0E61346002726
:10893000EBE6062205F1240104F1180022F08DFA7D
:1089400030B96B7F0746E0E619F0DCFAC3B22EE7D8
:10895000A37DC3F3C103012BA6D99EE7194A1A4987
:108960001A4840F2AC4320F08DFB404080F3118860
:108970004FF0030002DF67E66B7F0127C5E6114A6F
:108980001149124840F2315320F07CFB404080F303
:1089900011884FF0030002DF41E7062205F12401B0
:1089A00004F1180022F059FA00283FF407AEA37D25
:1089B000C3F3C103012BADD8B4E76B7F252B7FF642
:1089C000A3AEBAE5E02B05009C2B05004C21050069
:1089D0002DE9F04F8FB0DFF8D8800B900DF1370103
:1089E0000DF136000FF048FA324F9DF836A09DF891
:1089F00037B00DF003F9D8F800400A90A4FB0754F3
:108A000029A3D3E90023002621462846FDF778FB59
:108A10000B9B0693CDE90766274B05938146D8F853
:108A2000040021A3D3E90023A0FB0701FDF768FBA5
:108A3000224B29F07F47A7FB033120F07F4007221C
:108A4000CDE9036002FB0711E81A64EB01014FF462
:108A50007A720023FDF754FB0A9B0096CDE9017062
:108A60005A46032150460CF09DFF30F0020416D107
:108A7000134A144800231EF0A5FB68B19DF8372067
:108A80009DF836000094234603210DF017F86FF08F
:108A900073000FB0BDE8F08FD8F80C00F9E76FF065
:108AA0008B00F6E7AFF300808D49FD1A0700000048
:108AB0001066002000CA9A3B4D4404008D49FD1AFF
:108AC000447B0B00F865002038B50F4D04460DF0CF
:108AD00095F8A9680DF094F86968B0FBF4F40444C3
:108AE0000A4807A3D3E90023A1FB0001FDF708FB17
:108AF00020F07F40844294BF0020012038BD00BF99
:108B00008D49FD1A070000001066002000CA9A3B3C
:108B100001481EF0CFBC00BF9802002007B527F027
:108B20001FFC4FF47A72A0FB020302FB0131C00B61
:108B3000074A40EA4140106000234FF400420548D4
:108B4000CDE900231FF07AFA002003B05DF804FBA2
:108B5000203700200010002008B5044B187800F0E2
:108B600043FABDE808401FF08BBB00BF726A0020CB
:108B7000044B1A78824202D01870FFF7EDBF002034
:108B8000704700BF726A002008B527F0E9FB4FF478
:108B90007A72A0FB020302FB0131C00B044A40EAD7
:108BA00041401060BDE808400020FFF7E1BF00BF72
:108BB0002037002008B527F0D3FB4FF47A72A0FBD2
:108BC000020302FB0131084AC30B126843EA414326
:108BD0009B1A47F23052934204DDBDE80840012061
:108BE000FFF7C6BF08BD00BF2037002030B5194CC5
:108BF0008DB00022002303A920461EF079F908B1A8
:108C00000DB030BDDDE90415039800F057F80028D9
:108C1000EFDBFF238DF81830B5FA85F35B09079079
:108C20008DF8203027F09CFB4FF47A72A0FB0203F2
:108C300002FB0131C00B40EA4140C90B8DE8030043
:108C400006ABCDE90A010FCB00F0DAF91FF018FBF3
:108C5000CFE700BF0C1200201FB583F00103CDE960
:108C6000011203930022002301A904481EF0EAF830
:108C700003481EF01FFC05B05DF804FB0C12002039
:108C80002437002010B5044678B10949094827F077
:108C900075F9A36808491B6820469847A3689B6834
:108CA0000BB120469847002010BD6FF01500FBE780
:108CB000ED8B020024370020598C020001EB0011DB
:108CC0004B2905D8044B53F8210008B101387047EF
:108CD0006FF01500704700BF2C0E050030B51D4C1D
:108CE00004EB00148FB0606883683921DB68984713
:108CF00068BB60686189836804AD1B692A46984730
:108D000028BB95E803000123069307AB83E8030023
:108D10006389ADF8243027F023FB4FF47A75A0FB6C
:108D2000053205FB0121DB0B43EA4143C90BCDE9C9
:108D30000A31237B8DF830300EAB13E90F008DE83C
:108D40000F0006AB0FCB00F081F91FF099FA0FB0BE
:108D500030BD00BFB802002010B5134CBFF35B8FCD
:108D600054E8002F22F0010144E800100028F7D158
:108D7000BFF35B8FD20702D50020FFF7AFFFBFF331
:108D80005B8F54E8003F23F0020244E800210029F1
:108D9000F7D1BFF35B8F9B0704D5BDE810400120DE
:108DA000FFF79CBF10BD00BF34370020064901EB20
:108DB0000012506830B183689B68114608310BB1CE
:108DC000024A1847704700BFB8020020D18D020048
:108DD00010B5104C0C1B102C1BD8241126F039FF99
:108DE00090B1BFF35B8F01230B4AA34052E8000F01
:108DF000184342E800010029F8D1BFF35B8F074810
:108E0000BDE810401EF056BB2046BDE81040FFF7FD
:108E100065BF10BDC002002034370020A80200202A
:108E200002289ABF024B03EB40000020704700BFAE
:108E3000780E00202DE9F041134B144EA3EB0608E9
:108E400007460D4606EBC106C8F3C708A84506DC71
:108E50000024384627F02FFC2046BDE8F081326818
:108E60003B689A420BD13D71736838461B6898473E
:108E700001280446ECD0022804D00028E9D10135AD
:108E80000836E3E70024E7E7843905004C3905009C
:108E900000B58BB0064B074A2821684604F078FAE3
:108EA00005490122684603F0F9FA0BB05DF804FBAE
:108EB0003C30050046300500736A00202DE9F04182
:108EC000466807693179F38804463068D0F810E0C5
:108ED000D0F80880DEF80050DA0754BF43F4B0132E
:108EE00083F4D0134FF0010C23F480120CFA01FC30
:108EF000DB074CBF45EA0C0525EA0C05CEF800500F
:108F0000D8F80030984760BB03F01CFC164803F00B
:108F100055FB054610BB1549154827F073F8154851
:108F200003F0F6FA7B785BB901233B700022002343
:108F30000F481EF027FBA3681B680BB1204698471B
:108F4000318959B140F2E7304FF47A72002300EBD7
:108F5000C1300021FDF7D4F81EF01AFE2846BDE806
:108F6000F0816FF00405F9E7D8020020918E02002D
:108F7000981400205930050008B54FF4F012002372
:108F800002481EF033FB00EAE07008BD9814002090
:108F9000F7B50C461646114901AA1F4620F0BDFB45
:108FA000B0B1019BA3B9012C15D10D4D2246294624
:108FB0003846B047002806DB2B780A486C7023B18E
:108FC0001FF074F9002003B0F0BD1FF081F9F9E73C
:108FD0006FF00100F7E76FF01500F4E73C30050093
:108FE000736A0020EC08050010B504460C2027F039
:108FF00069FB024A0260047210BD00BF740F0500D5
:1090000084B070B504AC84E80F00202027F05AFB30
:109010000446084B44F8083B04AD06460FCD0FC488
:1090200095E8030084E803003046BDE8704004B0D2
:10903000704700BF780F05000268034B9A420CBFCF
:1090400008300020704700BF780F050084B070B56D
:1090500004AC84E80F00282027F034FB0446084BBA
:1090600044F8083B04AD06460FCD0FC495E80F0049
:1090700084E80F003046BDE8704004B0704700BF80
:109080007C0F05000268034B9A420CBF0830002099
:10909000704700BF7C0F050010B504460C2027F078
:1090A00011FB024A0260047210BD00BF800F050070
:1090B00082B038B504A981E80C00054611481DF0BE
:1090C000A5FC0446A0B16B68012B0CD0022B05D087
:1090D000A3B9BDE8384002B01FF020B91FF025F950
:1090E00000282046F5DCBDE8384002B01FF00FB97B
:1090F0006FF00400BDE8384002B070476FF08500A3
:10910000F8E700BF3C30050082B010B502A981E845
:109110000C0004460B481DF079FC78B16368022B03
:1091200004D00020BDE8104002B070471FF0FDF8E9
:109130000028CCBF002001206060F2E76FF004003F
:10914000F0E700BF3C3005000D4A52F820300133F3
:1091500042F820300B4A0123117883400B430A491F
:109160000978DBB2137023EA01030849084A097839
:1091700050780B43181A537018BF0120704700BF76
:1091800038370020776A0020756A0020766A002050
:109190007D0F002010B5114A52F82030002B19DD48
:1091A000013B42F820300E4A2BB91378012181404F
:1091B00023EA010313700B480B4B047810780B4A19
:1091C0005978127820EA040010435870401A18BFEA
:1091D000012010BD6FF01500FBE700BF38370020FD
:1091E000776A0020756A00207D0F0020766A0020D3
:1091F00010B5084B084A1870084B51781C78084B7A
:109200001B7823EA040318435070401A18BF01204A
:1092100010BD00BF766A00207D0F0020756A002017
:10922000776A0020074B00221A70074B074A19780B
:10923000074B50781B7823EA0103181A537018BFA4
:1092400001207047766A0020756A00207D0F00209B
:10925000776A0020A0F1E003072B03D82030C0B2CA
:10926000FFF772BF064B062213F8011F19B1013A2E
:10927000FAD10020704718700028F8D0F9E700BF35
:109280007F0F0020A0F1E003072B10B404D820309A
:1092900010BCC0B2FFF77EBF0023064A194612F881
:1092A000014F0133A04208BF1170062BF7D10020F7
:1092B00010BC70477F0F002002480822002121F0D7
:1092C000E7BD00BF7E0F002010B50849002301EB69
:1092D0004302B2F8014024B10133062BF7D100203C
:1092E00010BDA2F801000028F6D0F8E7700F0020AA
:1092F00030B50023074C194604EB43020133B2F8A2
:109300000150854204BF51709170062BF4D10020AA
:1093100030BD00BF700F002002480C22002121F058
:10932000B7BD00BF710F0020004870477D0F0020BF
:1093300000487047700F002082B02DE9F84308A95B
:1093400081E80C000E9C006817461DF05FFB056964
:109350000998236866683C384200F3B114183C440D
:1093600005EBC40EDFF84890DEF80410314455F8E0
:10937000346091FBF9F833440C9E434436884FF433
:10938000B47C09FB1811BCFBF6FC93FBFCF60CFB50
:10939000163345F83430CEF8041002443A440C3207
:1093A000002045F82260BDE8F84302B0704700BFD6
:1093B00040420F002DE9F04395B0142200210FA880
:1093C00021F066FDDFF8D0804FF47A770022002389
:1093D0000FA940461DF08CFD002849D10F9E029038
:1093E00026F0BEFFA0FB070C07FB01CCC50B45EA2E
:1093F0004C459DF84C30CDE903654FEADC3C13F059
:10940000010FCDF814C002AB0FCB06AC84E80F00FF
:109410000DF128092FD0CDE90765CDF824C094E8D7
:109420000F0089E80F0010981DF0F0FA50B1836822
:109430009C683CB1DDE90C018DE8030010A899E8B7
:109440000C00A047139C012CC0D9C4F35E044FF458
:10945000004540F2E73000214FF47A720023E5FB2B
:109460000401FCF74DFE02460B460C481EF08AF83C
:1094700015B0BDE8F083CDE90765CDF824C094E8C8
:109480000F0089E80F0010981DF0C0FA0028D9D00D
:109490008368DC68CDE700BF7C110020000000205D
:1094A00010B58AB001AC84E80E0005A81122002195
:1094B00021F0EEFC94E8070006AB83E807009DF876
:1094C00030300D9A43EA42030993094800220023F1
:1094D00005A91DF0B7FC002804DB064826F09EFD18
:1094E00010B100200AB010BD0248FFF763FFF8E793
:1094F0007C1100200000002008B5FFF715FF094A85
:10950000127822B1012A07D06FF0850008BDBDE8AE
:109510000840092101F0CCBABDE80840013000F054
:10952000C1BD00BF860F002008B5FFF701FF094A43
:10953000127822B1012A07D06FF0850008BDBDE87E
:1095400008400D2101F0B4BABDE80840013000F038
:10955000CFBD00BF860F002002490348012202F060
:109560009DBF00BF786A00200C31050010B503F0E4
:10957000E9F8074803F022F8044630B905480649DF
:1095800026F040FD054802F0C3FF204610BD00BF95
:1095900010030020C8140020599502002031050056
:1095A00038B500F041FBC8B101F04CFA02281BD1DC
:1095B0000F4B1C780F4D2B78A34217D0FFF77CFE82
:1095C000FFF7AAFEFFF798FFFFF7AEFF20462C70CB
:1095D00000F030F8BDE838401EF052BE01F032FA1B
:1095E000841E18BF0124E5E70124E3E738BD00BF6E
:1095F000786A0020860F002070B50C4615460B498E
:1096000000221E4620F089F808B9002070BD012C08
:1096100008D1074922463046A8470028F6DDFFF763
:10962000BFFFF2E76FF01500F0E700BF163105004D
:10963000786A002010B504460C2027F043F8024A4F
:109640000260047210BD00BF3810050002281FB56B
:109650002FD828BB09B3184B1A6801238340134342
:10966000154C9A42236018D08DF800008DF8011037
:1096700026F076FE4FF47A72A0FB020302FB013162
:10968000C00B40EA4140C90BCDE9020104AB13E92C
:109690000F0000F043F91EF0F3FD002004B010BDF0
:1096A000054B1A680029D8D10123834022EA03031D
:1096B000D6E76FF01500F1E790380020014B1968EC
:1096C0001EF09BBF903800202DE9F04F15464FF457
:1096D00034721F464A430C2303FB0522394B1344C3
:1096E00082460E4693E807008DB005AC84E807007B
:1096F000DDE916891DF08AF9834600285DD0CDE9A1
:109700000865CDE90A8905981DF080F983685B68D2
:109710009C4653B10CAB13E90300DDE908238DE847
:10972000030020466146884758BBDBF808301B78A9
:10973000012B13D0022B27D0002B40D1CDE9086597
:10974000CDE90A890CAB029713E903008DE8030009
:109750002B46324620461EF060FF12E0CDE9086538
:10976000CDE90A8902970AAA92E803008DE803006E
:1097700008ABBAF1FF0F0CCBECD0214650461FF0DE
:109780007EF80DB0BDE8F08FCDE90865CDE90A8916
:1097900002970AAE96E803008DE8030008AD95E84D
:1097A0000C00214600201FF06AF8029796E803009B
:1097B0008DE8030095E80C00CCE70120E1E76FF0AD
:1097C0008500DEE7441005002DE9F34EDDE90AAB24
:1097D000104D81460F4614461AB10F4B1B6845F8D1
:1097E0002130022655F82710F0B21EF006FF30B9DE
:1097F000013EF7D26FF0850002B0BDE8F08ECDE9F2
:1098000000AB23463A4631464846FFF75DFF002845
:10981000F2DDEDE7A0370020903800202DE9F04F71
:109820003D4C8FB000EB4003CDE9071204EB8304FD
:1098300000F13C03064602254FF0000906930CAFE9
:10984000206B1DF0E3F800285BD03046FFF7E8FA04
:109850008046069B0B93DDE91823206B0A95CDE922
:109860000C231DF0D3F800284BD08368D3F810A048
:10987000BAF1000F45D0079B0493089BCDE9028302
:1098800097E803008DE8030004F1300B0DF1280880
:1098900098E80C005846D047002832DBB9F1000F99
:1098A00018D1E8B2FFF70AFF80F00100C0B2C3B2DE
:1098B0000993069B0B93DDE91823206B0A95CDE9EC
:1098C0000C231DF0A3F8099B30B96FF015000FB001
:1098D000BDE8F08F0120EAE78268D2F814A0BAF15F
:1098E000000F02D16FF08500F1E7029397E80300C3
:1098F0008DE80300584698E80C00D047002807D0B0
:10990000E5DB013D6B1CA4F1180499D10020DEE7D2
:109910004FF00109F5E700BF280300207FB56C4632
:1099200084E80F00182026F0CDFE0546054B45F8CB
:10993000083B064694E80F0085E80F00304604B067
:1099400070BD00BFB418050084B070B504AC84E8E5
:109950000F00202026F0B6FE0446084B44F8083BD2
:1099600004AD06460FCD0FC495E8030084E803005C
:109970003046BDE8704004B0704700BFBC18050019
:109980000268034B9A420CBF08300020704700BFAA
:10999000BC18050013B56C4684E80300102026F0BF
:1099A00091FE0246054942F8081B034694E803006D
:1099B00082E80300184602B010BD00BFC0180500C1
:1099C00007B5094B1A78094B8DF80020162102FBC8
:1099D0000133019302AB13E90300FFF7DBFF03B090
:1099E0005DF804EB1EF04CBC806A0020816A002008
:1099F00002490348012202F051BD00BF806A0020E5
:109A0000C031050070B503788AB004460E4607AD34
:109A1000032B20D8DFE803F002191B1D114928464B
:109A200021F0EAF9059563780493A3780393E3782A
:109A300002932379019363790093A3790A4A1E2143
:109A400030461FF02CF80AB070BD0849E7E7084916
:109A5000E5E70849E3E7084A0A2128461FF01FF80E
:109A6000E0E700BFD3310500FC310500DA31050025
:109A7000E1310500EB310500F53105002DE9F0413C
:109A80008AB00D46164628496A4604461F461FF00E
:109A900044FEF8B10098E8B10A2201A921F0A4F827
:109AA000019B1B7803BB162D1ED1C4B2042C1BD8FE
:109AB000DFF878806C432A4608EB04013846B0474B
:109AC000002813DD04F10F0002A94044FFF79AFFBC
:109AD00000200BE016496A4620461FF01EFE78B1B2
:109AE000009B6BB9012D04D06FF015000AB0BDE8E2
:109AF000F08110492A463846B04700EAE070F5E7A1
:109B00000D496A4620461FF008FE0028E0D0009864
:109B10000028DDD0072DE7D121F043F80028D7D168
:109B200006492A46E7E700BF1F320500816A002088
:109B3000C4310500806A002028320500796A0020BF
:109B400010B592B0044622F017FA01A9FFF75AFFA8
:109B500009A9204606F05CFB9DF82530012B14D1A5
:109B60000B481DF0A7FC204622F006FA094B197895
:109B70000F22162313FB012307490722194421F062
:109B80006CF910B905481DF095FC12B010BD00BF6E
:109B9000D4030020806A0020816A0020E4030020B2
:109BA00008B5084B084819780F22162313FB012328
:109BB00018440649072221F050F9B0FA80F0400914
:109BC00008BD00BF806A0020816A002017350500AB
:109BD0002DE9F04104468CB00D464FF016080F4FAA
:109BE00004A9284614FB08F6FFF70CFF06F10F0046
:109BF00029460722384421F040F9224608496846A0
:109C000003F0E0FB4246B919684602F047FC0548FC
:109C10001DF050FC0CB0BDE8F08100BF816A00204F
:109C20003D320500E403002010B5124B12491A78AA
:109C300016240F2314FB0234104B1C448AB0072255
:109C4000204621F00AF910B900200AB010BD2146C3
:109C5000002006F08BFA04460028F5D001A906F092
:109C6000D7FA204622F0AFF89DF82400831E584210
:109C70005841EAE7806A002017350500816A002014
:109C8000F0B58DB0FFF78CFF98B9FFF7CDFF80F0EE
:109C900001035B00DBB2214D2A7803EB0213112B89
:109CA00009DC022B2DD0102B23D0002420460DB030
:109CB000F0BD0223EFE7202B1BD0122BF5D105F0CE
:109CC000ADFA00232B7004460028EFD1144F0FCFBC
:109CD00002AE0FC63B68134933600422009423464A
:109CE00002A805F069FA04460028DFD102232B7090
:109CF000DBE705F093FA00232B7004460028D4D04C
:109D0000D4E7074E0FCE07AC0FC43368236000239F
:109D100004490093042207A8E3E700BFEF6A00208C
:109D2000200D0500DC18050030B593B0054622F083
:109D300023F901A90446FFF765FE09A9284606F0A4
:109D400067FA9DF82530012B05D1FFF729FF214641
:109D500018B904F081FB13B030BD034B1878FFF73E
:109D600037FFFFF78DFFF6E7806A002030B593B02C
:109D70000D4609A9044606F04BFA9DF82530012B43
:109D80000BD1204622F0F8F801A9FFF73BFE114B5A
:109D900000221A701DB1FFF773FF13B030BD02210E
:109DA000204622F097F8FFF76BFF204622F0E4F8F8
:109DB000094B19780F22162313FB012307490722A9
:109DC000194421F04AF80028E7D105481DF072FB3C
:109DD000E3E700BFEF6A0020806A0020816A00206C
:109DE000E403002010B5002004F078FC0446D8B944
:109DF00002F0A8FC0D4802F0E1FB0446A0B90C49B2
:109E00000C4826F0FFF80C4802F082FB0B4802F0E9
:109E10007FFB0B4806F086F90A4806F083FC0A48E7
:109E200006F09AFCFFF72CFF204610BDBC03002073
:109E3000F1990200F81400204D320500513205005E
:109E40009C0300208003002070030020F8B50E4D15
:109E50000E4E28780E4916240F2714FB0070072297
:109E6000304420F0FAFF50B12B7814FB03713144D9
:109E7000002004F0F1FA06492878FFF7A9FEFFF761
:109E8000FFFE0020F8BD00BF806A0020816A00202C
:109E900017350500042808B510D80A4B1A788242F5
:109EA0000AD018704FF4F012002307481DF09EFBF3
:109EB000FFF7E6FEFFF784FD002008BD6FF02100EC
:109EC000FBE700BF806A0020F8140020054B1878DB
:109ED00005230130B0FBF3F303EB8303C01AC0B2D8
:109EE000FFF7D8BF806A0020054B1878052304309F
:109EF000B0FBF3F303EB8303C01AC0B2FFF7CABF92
:109F0000806A0020044B054819780F22162313FBA2
:109F100001231844704700BF806A0020816A002036
:109F200030B5014691B004460722144820F095FF51
:109F3000E8B1124808A9FFF765FD11490F4807224B
:109F400020F08BFF0546A8B969462046FFF75AFD69
:109F500007222146094820F090FF0A492A4608A80E
:109F600003F030FA0722214608A802F097FA0020F1
:109F700011B030BD6FF00B00FAE700BF796A002026
:109F800017350500543205001FB54D240294044CCA
:109F90000194BDF81840009423F0C0FA04B010BD3D
:109FA0009232050007B5064B009306490648052383
:109FB0004FF440721DF084FA002003B05DF804FBFA
:109FC000FC180500C86B00202815002010B5FFF70D
:109FD00099FF06490722044620F03FFF28B1214699
:109FE0000020BDE8104006F0C1B810BD17350500CF
:109FF000F0B5134E134F89B0002200236946304656
:10A000001CF076FF054608B109B0F0BDFFF7DEFF92
:10A0100004460028F8D01822294602A820F038FF6C
:10A0200008230DEB030120460397CDF810D0ADF8BF
:10A03000143008F073FA204621F0C5FEDCE700BFBB
:10A04000DC110020681905002DE9F041134FDFF8FD
:10A0500050808AB001AE00220023314638461CF001
:10A0600047FF054610B10AB0BDE8F081FFF7AEFF2B
:10A0700004460028F7D01822294604A820F008FF3B
:10A080000C2304A92046CDE90586ADF81C3008F064
:10A0900045FA204621F097FEDDE700BFAC11002015
:10A0A000CC19050037B5054640F6CD4201460023E0
:10A0B0000C481CF0C7FE044678B110F10B0F09D113
:10A0C00000220023694607481CF012FF2846FFF7CC
:10A0D000E9FF0446204603B030BD0349034825F09C
:10A0E0007AFFF7E7DC110020040400202815002087
:10A0F00030B5054685B040F6CD42014600230D48F7
:10A100001CF0A0FE044678B110F10B0F09D100221B
:10A11000002301A907481CF0EBFE2846FFF7E8FFE3
:10A120000446204605B030BD0349044825F053FFDE
:10A13000F7E700BFAC110020F40300202815002031
:10A1400010B504460C2026F0BDFA024A02600472E3
:10A1500010BD00BF301A050008B500F0EBFCBDE8EB
:10A160000840014925F037BFD404002007B50A484C
:10A1700025F089FC68B14FF4F0120023CDE90023EB
:10A180000648002200231DF059FF002003B05DF8AF
:10A1900004FB6FF01200F9E71C09050038100020DD
:10A1A00037B50F4CA5682C21EB6820469847A0B91D
:10A1B0002C212B696A462046984770B9094C0098B3
:10A1C0002378834209D0C0B2207001F067F820B92B
:10A1D0002078FFF7B5FF1EF053F803B030BD00BF85
:10A1E0001C090500F16A002030B50C4B187887B0C7
:10A1F00090B90B4A52686AB90A4D01221A700FCD04
:10A2000001AC0FC42B680849236001A805F050FA7F
:10A2100000EAE07007B030BD0020FBE7F26A0020E2
:10A2200094380020340D05009DA8020007B50023D6
:10A23000074900934FF40072052306481DF040F9CA
:10A24000054805F06FFF03B05DF804EBFFF7CCBFE6
:10A25000C86E0020C8150020F404002084B010B59A
:10A2600088B00AAC84E80F001148214640F6CD4280
:10A2700000231CF0E7FD0446A8B110F10B0F0CD130
:10A280000022002303A90A481CF032FE0E9B009313
:10A290000AAB0FCBFFF7E2FF0446204608B0BDE84B
:10A2A000104004B070470349034825F094FEF4E7DA
:10A2B0003C120020E4040020C815002070B503788B
:10A2C0008AB004460E4607AD032B20D8DFE803F022
:10A2D00002191B1D1149284620F08EFD0595637853
:10A2E0000493A3780393E37802932379019363792A
:10A2F0000093A3790A4A1E2130461EF0D0FB0AB013
:10A3000070BD0849E7E70849E5E70849E3E7084A77
:10A310000A2128461EF0C3FBE0E700BFD331050049
:10A32000FC310500DA310500E1310500EB310500B3
:10A33000F531050030B50C4D89B002AC0022002388
:10A34000214628461CF0D4FD08B109B030BD08AB49
:10A3500013E903008DE8030094E80F00FEF750FEB8
:10A360001DF08EFFEAE700BF1C11002030B50C4D38
:10A370008DB004AC00220023214628461CF0B8FD15
:10A3800008B10DB030BD0CAB13E90F008DE80F0024
:10A3900094E80F00FEF75AFE1DF072FFEAE700BFD7
:10A3A0004C11002070B5114E114C8AB000220023D0
:10A3B00005A930461CF09CFD08B10AB070BD9DF89F
:10A3C0001430A4225343E518E35C022BEED1B5F818
:10A3D00080100029EAD0CDE90100012300936868CC
:10A3E00013230DF1150223F0CDFBDFE73C12002013
:10A3F0009438002000B508468DB0114622B98281FC
:10A4000000200DB05DF804FB012BF9D90C2B28BFFF
:10A410000C231A4601A820F030FD1C22002105A8BB
:10A4200020F036FD9DF80530003B18BF0123049352
:10A4300025F096FF4FF47A72A0FB020302FB013174
:10A440009DF805209DF804308DF82830C00B40EAB7
:10A45000414002EB8202C90BCDE9080152000DF127
:10A46000060105A820F009FD0022002304A90448E4
:10A470001CF0E8FC03481DF01DF80120C1E700BFF7
:10A480004C11002014050020034B5B68834214BF6D
:10A490006FF01500002070479438002008B5FFF7D2
:10A4A000F3FF031EA3BF0348A42202FB0300002006
:10A4B00008BD00BF943800202DE9F041134686B056
:10A4C00007460D4639B91822184620F0E1FC002055
:10A4D00006B0BDE8F081FFF7E1FF04460028F6D0A2
:10A4E000124BD0F808C001AA03F11008964618686C
:10A4F0005968164603C6083343453246F7D11B78E0
:10A5000033707146604620F079FD08B10120DFE725
:10A51000074BA060E3602B8A013323820323237659
:10A5200004F10801384608F0FBF8D0E7480D0500B3
:10A5300035A502002DE9F041074690B00D460029EF
:10A5400000F09580C968002900F09380FFF7A6FF0E
:10A55000044600283AD0484B0E6801AA03F11008BF
:10A560009646186859689446ACE80300083343459A
:10A570006246F6D11B788CF800307146304620F0E8
:10A580003DFD30BBA0602B8A023323820323237658
:10A5900004F168036363E38A2386284622F0D5FF2B
:10A5A000364B23620123A085238704F1200138461E
:10A5B00008F0C0FAB4F8803033B1A38D23B1B4F8F9
:10A5C0005030003B18BF012383F0010010B0BDE8FC
:10A5D000F0812B4B06AA03F11008964618685968BB
:10A5E0009446ACE80300083343456246F6D11B7835
:10A5F0008CF800307146304620F000FDC0B9A060F4
:10A600002B8A023323820323237604F16803A36594
:10A61000E38AA4F85430284622F097FF194B63646C
:10A620000123A4F85000A4F85C3004F14401BEE713
:10A63000154B0BAA03F1100E94461868596817467B
:10A6400003C7083373453A46F7D11B783B70614620
:10A65000304620F0D3FC0028ACD1A0602B8A023316
:10A660002382284622F071FFA4F88000A2E7084662
:10A67000ACE70846AAE700BF590D05008DA6020009
:10A680006A0D0500F5A302007B0D05002DE9F047DA
:10A6900086B007461446FFF701FF002851D024B9C1
:10A6A0008C81204606B0BDE8F087631E00F1810270
:10A6B0000F3413F8011F12F8015F69401174197803
:10A6C0001170A342F5D1DFF88090DFF880A000F18F
:10A6D000920400264FF0010800252378EB40DB07A9
:10A6E00027D514F8101C08FA05F31942384614BF90
:10A6F00001210021FFF7C8FEAA198DF80000019280
:10A700008DF8081025F02CFE4FF47A72A0FB02039E
:10A7100002FB0131C00B40EA4140C90BCDE9040105
:10A7200000220023694648461CF08CFB50461CF072
:10A73000C1FE0135082DD0D10836802E04F1010468
:10A74000CAD10120AEE700BF1C1100202405002063
:10A750002DE9F047044686B000284AD1264D2B78D3
:10A76000002B46D0686810B121F02DFB6C600024EE
:10A77000224FDFF88C90DFF88CA02C70A0460026CA
:10A780003B78F340DB071CD533198DF8008001932B
:10A790008DF8088025F0E4FD4FF47A72A0FB0203E7
:10A7A00002FB0131C00B40EA4140C90BCDE9040175
:10A7B00000220023694648461CF044FB50461CF02A
:10A7C00079FE0136082EDBD10834802C07F1010711
:10A7D000D5D100220C49134601F8013F0132102A5D
:10A7E0000B74F9D1AB85A5F88030002006B0BDE828
:10A7F000F0876FF01500F9E7943800201639002033
:10A800001C110020240500201539002070B5FFF729
:10A8100087FB041E0ADBA425064E6543735D2BB936
:10A82000FFF796FF01237355204670BD6FF00B04B0
:10A83000FAE700BF9438002070B586B00646FFF7EF
:10A84000E5FF041E20DB124B00221A7004F0B0FF5B
:10A85000002819DB0F4B986DD96D6A4603C260332F
:10A8600015460FCB85E80F000B4BA42202FB0433E7
:10A8700029466A46304605F02DFD002804DA2046B8
:10A88000FFF766FFFFF7B0FC002006B070BD00BF09
:10A89000F26A0020340D05009838002070B588B0A9
:10A8A0001546694604461E46FFF708FD35B90649B8
:10A8B0002246304620F033FF08B070BD012DFBD199
:10A8C0002046FFF7B9FFF7E7CDA80200F0B50378FF
:10A8D000063B012BA5B005460E4602D9012025B046
:10A8E000F0BD447814F00F04F8D16B789C42F5DA8F
:10A8F00069681022214401A820F0AEFB70B31A4B06
:10A9000006AA03F110079646186859689446ACE801
:10A9100003000833BB426246F6D11B788CF8003046
:10A92000714601A820F06AFBD0B1252210A901A828
:10A9300003F02CF80BAA0C4B9646186859689446FD
:10A94000ACE803000833BB426246F6D11B788CF8B2
:10A95000003025221AA9704603F018F81034C4E715
:10A960003046FFF769FFBAE7480D050008B5FFF765
:10A970008BFD002805DBA4235843024B02221A5406
:10A98000002008BD9438002030B59BB004460D4629
:10A9900021F0F2FA6946FFF791FC08A9204605F07C
:10A9A00037FC9DF821302BB920462DB11DF04CFF0E
:10A9B000FFF71AFC1BB030BDFFF7D8FF022120467D
:10A9C00021F088FA0028F5D12046FFF767FD00281E
:10A9D000F0D0838D23B111A9204605F019FCE7E7DB
:10A9E000084A8260084AC260012202824FF6FF7262
:10A9F000C282037600F10801406807F091FE00284A
:10AA0000E9D0D7E71D330500B9A40200024B187046
:10AA100002481CF04FBD00BF960F002034050020F7
:10AA200008B5044801F054FA002818BF6FF015006B
:10AA300008BD00BF0DAA0200014B1878704700BF87
:10AA4000960F0020084B1B780B2B4FF001000AD803
:10AA5000984010F41A7F05D110F4016F0CBF01204B
:10AA60000020704702207047960F002010B509485B
:10AA7000094C1BF0CBFF206048B1084B08494D2220
:10AA800017F0F8FF206824F0EEF9002010BD6FF0F9
:10AA90001500FBE72E33050038390020381A050071
:10AAA0003433050001481CF067BB00BF6C12002066
:10AAB00038B504460D46FFF7BFFF0B280BD8DFE87B
:10AAC00000F01E1E0A0A1E060A0A0A0A0A1EBDE82D
:10AAD000384001F0C7B94FF47672002309481CF0E2
:10AAE00071FB09482146006800232A4624F0C5F975
:10AAF000044610B103481CF03FFB204638BD6FF000
:10AB00001204FAE76C1200203839002007B5064B12
:10AB10000093064906480A234FF440721CF0D0FC0B
:10AB2000002003B05DF804FB4C1A0500C87000203B
:10AB30006816002000487047681600200148FEF79C
:10AB4000A1B800BF240A050010B5094C0A4491427F
:10AB500000D110BD11F8013B584003090001E35C2E
:10AB6000C0B2434018091B01205CDBB25840EEE73D
:10AB700099330500014B1B68184700BF44050020AE
:10AB800007B50B46002102460091034800F02AF960
:10AB900003B05DF804FB00BF75AB020030B587B0B1
:10ABA0000025CDE903010446009503A90548059554
:10ABB00000F018F9DDE904309842B8BF255407B019
:10ABC00030BD00BF5F8A04002DE9F047058B0446C5
:10ABD0002807904611D4022905F0070540F0CD80E2
:10ABE00020461DF084FF78B10138218B042811D84C
:10ABF000DFE800F0C3106D85950001290CBF45F01A
:10AC0000100545F02005258388F31188BFF36F8F69
:10AC1000BDE8F08701F0070AAA4500F0A6800027EA
:10AC2000B9463E46A368002B00F0BD8041F0080104
:10AC3000218388F31188BFF36F8FA168002900F08A
:10AC4000BB800D68002900F0B780D1F8048033463E
:10AC500052462046C047002D76D02B6829461D4617
:10AC6000F0E701F007035A1F012A1BD8002221F048
:10AC70000701062B276889B2C4E9002209D13B46A7
:10AC800003E0628B013262831B68002BF9D141F033
:10AC90000201218320461DF02AFF00287BD041F0CD
:10ACA000200177E0042B0AD121F0070189B221832A
:10ACB00020461DF01CFF10B141F020012183218BA3
:10ACC00001F0070AAA4550D00027B946AAE7236930
:10ACD00021F0070141F00601062DD3F800902183F1
:10ACE0002DD1B9F1000F40D041F00801218388F344
:10ACF0001188BFF36F8F3A492046C84729E021F0F9
:10AD00000701236941F0040189B2042DD3F80490AE
:10AD10002183E6D000273E464FF0040A82E721F067
:10AD20000701236941F0050189B2052DD3F8089088
:10AD30002183D6D000273E464FF0050A72E7002750
:10AD40003E464FF0060A6DE72B4687E7B9F1000F44
:10AD5000D1D14FF02003EFF3118883F31288BFF3B2
:10AD60006F8F238B23F008032383258BEA062ED5D0
:10AD700025F01003238305F007056669218B002E5B
:10AD8000BFF66FAF00232768C4E9003321F0070145
:10AD900041F001012183218B01F0070AAA454FF000
:10ADA00000097FF43FAF002F9BD041F008012183C1
:10ADB00088F31188BFF36F8F002FC7D03D683946E5
:10ADC0003346524620461DF0BEFE2F46F4E7AB0642
:10ADD0007FF51AAF25F02003238305F00705FFE672
:10ADE000738B04002DE9F04F8DB01D46531E824633
:10ADF000019103934FF00009039B5878252803F134
:10AE0000010419D11E4600204FF0FF3802360346D8
:10AE10000290444631780396392954D81F2914D812
:10AE2000002900F0F08101992520D0470199307860
:10AE3000D04709F10209DFE7002800F0E481019919
:10AE4000D04709F101090394D6E7A1F12002192A9C
:10AE5000E9D801A757F822F0C1AE020027AE0200E0
:10AE600027AE0200C1AE020027AE020041AF0200D1
:10AE700027AE020027AE020027AE020027AE020076
:10AE80008DAF0200C1AE020027AE0200A1AF0200EA
:10AE90004DAF020027AE02005BAF02007BAF0200A5
:10AEA0007BAF02007BAF02007BAF02007BAF0200F2
:10AEB0007BAF02007BAF02007BAF02007BAF0200E2
:10AEC00008460136A6E7582900F0EE80A1F163029A
:10AED000D7B2172FA7D8172AA5D801A757F822F05D
:10AEE0004FB10200C7AF020027AE020027AE02003A
:10AEF00027AE0200A7AF0200C7AF020027AE0200D4
:10AF000027AE0200A7AF020027AE020027AE020064
:10AF100027AE020083B0020027AE020027AE020077
:10AF200023B1020027AE0200C7AF020027AE020025
:10AF300027AE020083B0020027AE0200A7AF0200D6
:10AF400001992520D04709F1010955E7029A02F03D
:10AF5000FE0202924FF00008B3E7002C0DDAB8F1C0
:10AF6000000F0DDA029A002A00F0458124EAE47409
:10AF70000A2202FB0414303CA3E7B8F1000FF5DB12
:10AF80000A2202FB0812A2F130089AE7B8F1000F7A
:10AF900055F8042B80F23181002A80F2308154422E
:10AFA000022202928DE7682903D1682B06D148233B
:10AFB00087E76C2902D16C2B00F02381002B7FF4F2
:10AFC00032AF0B467DE77A2B06D1752955F8046B15
:10AFD00014D14FF0000B0CE06C2BF6D04C2BF4D1BD
:10AFE000073525F007037529D3E9006B03F1080540
:10AFF00006D120283ED1864F013C09E04FEAE67B8E
:10B00000BBF1000FF5DA7642824F6BEB4B0B013C44
:10B010000DF12D03059300230493304659460A226F
:10B020000023FBF76DF8049B03F1FF3CCDF810C043
:10B03000DDF814C030320CF8012DCDF814C0B44640
:10B040005A46BCF10A0F72F1000206468B46E4D262
:10B05000C3F1010B30330DEB0306B8F1000FA6F17D
:10B0600004066DDA029BD9077CD4A8EB0B03A4EB92
:10B070000B0413E02B280ABF674F684F04F1FF341D
:10B08000C6E770290FD155F8042B0023FAB9644E96
:10B09000053C6FF004034FF0050B604F029A9207D6
:10B0A0006FD4A04665E078216C2B03D155F8042BB2
:10B0B000002308E04C2BF9D1073525F007031D4686
:10B0C0005B6855F8082B232825D1880621D5554FD4
:10B0D000023C01F06001A1F1390B0DF12D0E0026AB
:10B0E00002F00F01092988BF594430310EF8011DC3
:10B0F000102A4FEA121141EA03714FEA131073F15B
:10B10000000306F1FF3C08D2C6F1010B06F1300343
:10B11000A1E7454FDCE7414FDBE766460A460346B9
:10B12000DEE755F8046B30461FF070FEB8F1000FF3
:10B13000834602DB4045A8BFC346384F4FF00008A6
:10B14000A8EB0B03002B92DDA4EB0804A6E755F84F
:10B15000043B8DF81830013C4FF0FF334FF0010BEA
:10B1600006AE9AE7A046EBE7029301992020D0476C
:10B17000029BB8F10108F7D524EAE472013C91443E
:10B18000A41AB84606E0049302920199D047029AA5
:10B19000049B9046424612F8010B0028F3D11A4650
:10B1A000013A15D5002BACBFC7EB03077F425B46C6
:10B1B000013B15D5BBF1000FA8BF5F444F442646A5
:10B1C000013E14D5002CA8BF3F1907EB080913E670
:10B1D0000493029201993020D047049B029ADFE742
:10B1E0000293019916F8010BD047029BE0E7019901
:10B1F0002020D047E4E70122D3E6904661E61446DA
:10B200005FE64C235DE648460DB0BDE8F08F00BF19
:10B21000AB330500A9330500AD3305001E39050029
:10B22000B5330500AF330500B233050008B54FF064
:10B230002002EFF3118382F31288BFF36F8F02F0C5
:10B24000F3F803481DF01EFC01F09CFDFCE700BF75
:10B25000BB33050019F0E6BC1FB507240294044C6B
:10B260000194BDF81840009422F058F904B010BDC4
:10B27000970F002010B5084C86B024788DF8174041
:10B28000012402940DF117040194BDF820400094AC
:10B2900022F044F906B010BD9E0F002000B589B021
:10B2A00064288DF8070019D80E4B18221870002159
:10B2B00002A81FF0EDFD0C4B03930DF1070304935F
:10B2C00002A901230020ADF8143007F027F910F18E
:10B2D000800F08BF002009B05DF804FB6FF0150077
:10B2E000F9E700BF9E0F0020F41A05002DE9F7438F
:10B2F0000F4606460821C06ADFF850901DF07AFF1D
:10B300003C68241A80463C6004EA0905AC4203D834
:10B31000002003B0BDE8F08308236A46214630468A
:10B320001DF0DBFE0028F4D1694630461DF06CFFAD
:10B3300040B1BDF80230BDF804203C6005EA0905C3
:10B3400013441D44A4EB0804E0E700BF0000FFFF26
:10B350002DE9F047044688B000F11407384624F080
:10B3600092FCA06A8368DB689847E06228B96FF0B6
:10B370001505284608B0BDE8F087A06A8368DB6839
:10B3800098470368013B1F2BF1D8A06A216805AAE2
:10B3900023F035FF0028EAD1A589002DE7D0069BD0
:10B3A000B5FBF3F203FB1255002DE0D1E389012B2D
:10B3B000DDD9E36A009593F804904FF0FF334FF026
:10B3C000FF3238461BF0EEFDE06A08211DF012FF47
:10B3D000A8460646E3891FFA85FA534508D8E3894B
:10B3E000434523D138461BF057FE6FF02C05C0E7CC
:10B3F000A1892B04891B13FA81F14A4608232046B0
:10B4000000911DF0AFFE78B1694620461DF073FE35
:10B4100008F10108009908234A4620461FFA88F8D7
:10B420001DF0A0FE0028DAD00135D3E753450BD13B
:10B43000009908234A46891B20461DF093FE18B93F
:10B44000694620461DF057FE69462046FFF74EFF2D
:10B45000054618B138461BF01FFE8AE7009B636063
:10B460004FEA13484FEA0848C4F80880D4E90113AA
:10B4700099420FD3082301AA20461DF02EFE05464F
:10B480000028E7D101AB13F8012B914533D10135E9
:10B49000082DF8D163681B0C1B04694620460093F5
:10B4A0001DF029FEA38900994A4620461DF05AFE48
:10B4B000051ECFDB636876D006EB03084FF6FF79F5
:10B4C000A389CDF800801FFA88F29B1B9A422ED3E5
:10B4D00000236168002B43D0090C09040091204629
:10B4E00069461DF008FE009920461DF060FE0546E5
:10B4F000002D74D0AEE701A920461DF085FE6268DC
:10B5000010B9921B6260B1E7BDF80850BDF8061093
:10B51000E06AC4F8088029441DF06CFE4044904263
:10B52000A060EED1002DECD06FF01C0568E0082380
:10B5300003AA414620461DF0D0FD0546002889D1CA
:10B5400003A920461DF060FE30B1BDF80C304B451C
:10B5500002D1BDF810300BB1B044B1E70123B8E718
:10B5600020461DF024FE054600287FF473AF636873
:10B57000264AA18913400B44A3EB460363601340A2
:10B58000A36020461DF022FFB1E75B1A4A46204621
:10B590001DF0E8FD051EFFF65DAF08D0E26AA36866
:10B5A00012681344A360D4E901318B42EDD861687D
:10B5B000A38901EB46029A429AD1DFF85080A26833
:10B5C00001EA08039A4293D020461DF0F0FD05469B
:10B5D00000287FF43FAF636803EA0803A360A389F0
:10B5E000A288A3EB46039A4206D038461BF054FDCE
:10B5F000012323740025BCE620461DF0D2FE05463B
:10B6000038461BF049FD002DF2D0B2E60000FFFFE6
:10B610002DE9F04F1D46037C89B0044689469046CB
:10B62000002B00F0BD80C26A082110461DF0E2FD2B
:10B630002946824610461DF0DDFDA389A3EB8A034F
:10B640009D42074600F2AF801DB1B8F1000F00F037
:10B65000AA806368039304AA03A92046DDF80CB00E
:10B660001DF00AFE0646002865D1BDF810304B4596
:10B6700005D06268039B9A42EDD1E5B95BE004A96D
:10B6800020461DF0C1FD0028F3D0BDF81200BDF822
:10B69000143075B19D420ED14FEA1B41090401449B
:10B6A0002B46424620461DF033FD002803DC0646AB
:10B6B00041E0002B3FD0002F41D104F1140301934E
:10B6C0004FF0FF324FF0FF3304F114001BF06AFC1F
:10B6D000DFF8D8B0E3899E425FD0D4E90123F9189E
:10B6E0008A422FD3ADF81A3006A8FF238DF81E30FA
:10B6F000ADF81890ADF81C501DF073FDA1682B46F5
:10B70000424620461DF002FE29468246E06A1DF0B0
:10B7100071FDA2680244A260BAF1000F07D106A928
:10B7200020461DF02DFE002814BF8246AA4601982F
:10B730001BF0B2FC5646304609B0BDE8F08F5744C6
:10B74000BFB2BAE70821E06A1DF054FD4FF6FF735F
:10B75000ADF818300023ADF81C301318ADF81A30CE
:10B76000A38902EA0B021A44101A606006A81DF0B1
:10B7700038FD06A920461DF003FE211D20461DF0C0
:10B78000BAFC636803EA0B03A36020461DF01EFEAB
:10B7900082460028CBD101369CE76FF01B0AC6E732
:10B7A0006FF00C06C7E76FF01506C4E70000FFFF57
:10B7B000F0B40C4B0C4E5F6A0C4BB34203D36FF0EA
:10B7C0008500F0BC70475D68BD4209D31C693CB17F
:10B7D00095F802C00579AC4502D12346F0BC184764
:10B7E0002433EAE73C390020981400207414002028
:10B7F0002DE9F047134CDFF85080DFF850900546F4
:10B800000E461746444503D36FF08500BDE8F08728
:10B810006268D9F824309A4212D3A36983B1907830
:10B820002979884205D13A4631462846BDE8F04795
:10B8300018475279012A03D13A463146284698479B
:10B840002434DFE774140020981400203C390020D1
:10B850002DE9F0410B4CDFF8308005460E461746C7
:10B86000444502D36FF0850009E063690BB92434C5
:10B87000F6E73A463146284698470028F7D1BDE812
:10B88000F08100BF741400209814002007B583785D
:10B890008DF800300379427943EA0223ADF8023093
:10B8A000C378684603F003038DF8043017F0B0FC4A
:10B8B00010F1780F04D018B1002003B05DF804FB3C
:10B8C0009DF8000017F02CFD10F1780F01D0002832
:10B8D000F2D1024B012083F8B900EEE73C39002099
:10B8E0000248082200211FF0D3BA00BFF739002018
:10B8F00070B50B4B0B4CA34201D3002070BD196AED
:10B900001E7F00220439D5B2AE4201D82433F2E7BB
:10B91000013211F832508542F5D10120EEE700BF27
:10B92000741400209814002008B509480378C3F364
:10B9300041130A3350F823303BB100F1080200F103
:10B9400010019847C043C00F08BD1846FCE700BF70
:10B950003C39002004282DE9F047DFF88C800446AC
:10B960000E4613D1FFF7BCFF204B93F8B930ABB1B3
:10B9700000F0FEFC1E4D454526D2D5F8209000274C
:10B980002A7FFBB29A4217D82435F4E7052810D154
:10B99000164B93F8B9300BB100F0EAFC144D454555
:10B9A00017D3124B1B6AE3B131462046BDE8F0477E
:10B9B00018470128F2D1D7E709EBC30301371879FB
:10B9C00017F0D8FC0028DBDA084B002283F8B920F6
:10B9D000E4E7EB681BB132462146284698472435F8
:10B9E000DDE7BDE8F08700BF981400203C39002057
:10B9F0007414002073B5C4B263060D468DF8074079
:10BA000007D02046FFF774FF78B10D4B93F8BA00CA
:10BA100058B10B4E204655B117F01EFCF3691BB10F
:10BA20000DF1070108209847012002B070BD17F002
:10BA30003BFCF369002BF7D00DF107010920F2E779
:10BA40003C3900202DE9F047A44EB36904460F4667
:10BA50001546FBB9237803F01F03012B00F09D80EE
:10BA6000022B00F0078133BB94F900002A6861784B
:10BA7000002834DA062912D008292BD0D9B901239D
:10BA80001370517096F8C3305B0043F001031370DC
:10BA900002232CE198470028DCD100200DE06288C9
:10BAA000100A011F0129844605D9072803D8716AA5
:10BAB000D2B20C781CB96FF01500BDE8F0874E7853
:10BAC000664503D19A4200F00D8101332144F0E72D
:10BAD0000B780CE196F8BA301370012307E10139B5
